{"contracts/Course.sol":{"CourseContract":{"abi":[{"inputs":[],"stateMutability":"nonpayable","type":"constructor"},{"anonymous":false,"inputs":[{"indexed":false,"internalType":"uint256","name":"id","type":"uint256"},{"indexed":false,"internalType":"string","name":"name","type":"string"}],"name":"CourseCreated","type":"event"},{"anonymous":false,"inputs":[{"indexed":false,"internalType":"uint256","name":"id","type":"uint256"}],"name":"CourseDeleted","type":"event"},{"anonymous":false,"inputs":[{"indexed":false,"internalType":"uint256","name":"id","type":"uint256"},{"indexed":false,"internalType":"string","name":"name","type":"string"}],"name":"CourseUpdated","type":"event"},{"anonymous":false,"inputs":[{"indexed":false,"internalType":"uint256","name":"id","type":"uint256"},{"indexed":false,"internalType":"uint8","name":"day","type":"uint8"},{"indexed":false,"internalType":"uint8","name":"startHour","type":"uint8"},{"indexed":false,"internalType":"uint8","name":"endHour","type":"uint8"}],"name":"ScheduleAdded","type":"event"},{"anonymous":false,"inputs":[{"indexed":false,"internalType":"uint256","name":"courseId","type":"uint256"},{"indexed":false,"internalType":"address","name":"student","type":"address"}],"name":"StudentRegisteredInCourse","type":"event"},{"anonymous":false,"inputs":[{"indexed":false,"internalType":"address","name":"addr","type":"address"},{"indexed":false,"internalType":"enum CourseContract.Role","name":"role","type":"uint8"}],"name":"UserRegistered","type":"event"},{"inputs":[{"internalType":"uint256","name":"_id","type":"uint256"},{"internalType":"uint8","name":"_day","type":"uint8"},{"internalType":"uint8","name":"_startHour","type":"uint8"},{"internalType":"uint8","name":"_endHour","type":"uint8"}],"name":"addSchedule","outputs":[],"stateMutability":"nonpayable","type":"function"},{"inputs":[],"name":"admin","outputs":[{"internalType":"address","name":"","type":"address"}],"stateMutability":"view","type":"function"},{"inputs":[{"internalType":"uint256","name":"","type":"uint256"}],"name":"courses","outputs":[{"internalType":"string","name":"name","type":"string"},{"internalType":"string","name":"description","type":"string"},{"internalType":"uint256","name":"credits","type":"uint256"},{"internalType":"bool","name":"isActive","type":"bool"},{"internalType":"uint256","name":"totalSchedules","type":"uint256"}],"stateMutability":"view","type":"function"},{"inputs":[{"internalType":"string","name":"_name","type":"string"},{"internalType":"string","name":"_description","type":"string"},{"internalType":"uint256","name":"_credits","type":"uint256"}],"name":"createCourse","outputs":[],"stateMutability":"nonpayable","type":"function"},{"inputs":[{"internalType":"uint256","name":"_id","type":"uint256"}],"name":"deleteCourse","outputs":[],"stateMutability":"nonpayable","type":"function"},{"inputs":[{"internalType":"uint256","name":"_id","type":"uint256"}],"name":"getCourse","outputs":[{"internalType":"string","name":"","type":"string"},{"internalType":"string","name":"","type":"string"},{"internalType":"uint256","name":"","type":"uint256"},{"internalType":"bool","name":"","type":"bool"},{"internalType":"uint256","name":"","type":"uint256"}],"stateMutability":"view","type":"function"},{"inputs":[{"internalType":"uint256","name":"_courseId","type":"uint256"},{"internalType":"uint256","name":"_scheduleId","type":"uint256"}],"name":"getSchedule","outputs":[{"internalType":"uint8","name":"","type":"uint8"},{"internalType":"uint8","name":"","type":"uint8"},{"internalType":"uint8","name":"","type":"uint8"}],"stateMutability":"view","type":"function"},{"inputs":[],"name":"getStudentCourses","outputs":[{"internalType":"uint256[]","name":"","type":"uint256[]"}],"stateMutability":"view","type":"function"},{"inputs":[],"name":"listCourses","outputs":[{"internalType":"uint256[]","name":"","type":"uint256[]"}],"stateMutability":"view","type":"function"},{"inputs":[{"internalType":"uint256","name":"_courseId","type":"uint256"}],"name":"registerStudentInCourse","outputs":[],"stateMutability":"nonpayable","type":"function"},{"inputs":[{"internalType":"address","name":"_user","type":"address"},{"internalType":"enum CourseContract.Role","name":"_role","type":"uint8"}],"name":"registerUser","outputs":[],"stateMutability":"nonpayable","type":"function"},{"inputs":[],"name":"totalCourses","outputs":[{"internalType":"uint256","name":"","type":"uint256"}],"stateMutability":"view","type":"function"},{"inputs":[{"internalType":"uint256","name":"_id","type":"uint256"},{"internalType":"string","name":"_name","type":"string"},{"internalType":"string","name":"_description","type":"string"},{"internalType":"uint256","name":"_credits","type":"uint256"}],"name":"updateCourse","outputs":[],"stateMutability":"nonpayable","type":"function"},{"inputs":[{"internalType":"address","name":"","type":"address"}],"name":"users","outputs":[{"internalType":"address","name":"addr","type":"address"},{"internalType":"enum CourseContract.Role","name":"role","type":"uint8"},{"internalType":"bool","name":"isActive","type":"bool"}],"stateMutability":"view","type":"function"}],"evm":{"bytecode":{"linkReferences":{},"object":"608060405234801561001057600080fd5b5033600360006101000a81548173ffffffffffffffffffffffffffffffffffffffff021916908373ffffffffffffffffffffffffffffffffffffffff16021790555060405180606001604052803373ffffffffffffffffffffffffffffffffffffffff16815260200160028081111561008c5761008b610176565b5b815260200160011515815250600160003373ffffffffffffffffffffffffffffffffffffffff1673ffffffffffffffffffffffffffffffffffffffff16815260200190815260200160002060008201518160000160006101000a81548173ffffffffffffffffffffffffffffffffffffffff021916908373ffffffffffffffffffffffffffffffffffffffff16021790555060208201518160000160146101000a81548160ff0219169083600281111561014957610148610176565b5b021790555060408201518160000160156101000a81548160ff0219169083151502179055509050506101a5565b7f4e487b7100000000000000000000000000000000000000000000000000000000600052602160045260246000fd5b61282a806101b46000396000f3fe608060405234801561001057600080fd5b50600436106100ea5760003560e01c80639dad8d221161008c578063a87430ba11610066578063a87430ba1461023b578063c53069c71461026d578063f43e5e421461028b578063f851a440146102bd576100ea565b80639dad8d22146101e75780639e9fa09714610203578063a4adb24b1461021f576100ea565b806383517a4f116100c857806383517a4f1461015b57806387ac18601461017957806391aac0651461019757806396f979d2146101b3576100ea565b80630b91e28d146100ef57806319384dd11461012357806377b311341461013f575b600080fd5b61010960048036038101906101049190611715565b6102db565b60405161011a9594939291906117fc565b60405180910390f35b61013d60048036038101906101389190611715565b61048d565b005b61015960048036038101906101549190611896565b61076f565b005b6101636109ea565b60405161017091906119bb565b60405180910390f35b610181610d22565b60405161018e91906119dd565b60405180910390f35b6101b160048036038101906101ac9190611b2d565b610d28565b005b6101cd60048036038101906101c89190611715565b610e51565b6040516101de9594939291906117fc565b60405180910390f35b61020160048036038101906101fc9190611715565b610fa4565b005b61021d60048036038101906102189190611c4f565b6110b2565b005b61023960048036038101906102349190611c8f565b61129e565b005b61025560048036038101906102509190611d1a565b611363565b60405161026493929190611dcd565b60405180910390f35b6102756113c7565b60405161028291906119bb565b60405180910390f35b6102a560048036038101906102a09190611e04565b611534565b6040516102b493929190611e53565b60405180910390f35b6102c56116a5565b6040516102d29190611e8a565b60405180910390f35b60608060008060006002548610610327576040517f08c379a000000000000000000000000000000000000000000000000000000000815260040161031e90611ef1565b60405180910390fd5b60008060008881526020019081526020016000209050806000018160010182600201548360030160009054906101000a900460ff16846004015484805461036d90611f40565b80601f016020809104026020016040519081016040528092919081815260200182805461039990611f40565b80156103e65780601f106103bb576101008083540402835291602001916103e6565b820191906000526020600020905b8154815290600101906020018083116103c957829003601f168201915b505050505094508380546103f990611f40565b80601f016020809104026020016040519081016040528092919081815260200182805461042590611f40565b80156104725780601f1061044757610100808354040283529160200191610472565b820191906000526020600020905b81548152906001019060200180831161045557829003601f168201915b50505050509350955095509550955095505091939590929450565b60025481106104d1576040517f08c379a00000000000000000000000000000000000000000000000000000000081526004016104c890611ef1565b60405180910390fd5b60008082815260200190815260200160002060030160009054906101000a900460ff16610533576040517f08c379a000000000000000000000000000000000000000000000000000000000815260040161052a90611fe3565b60405180910390fd5b6000600281111561054757610546611d56565b5b600160003373ffffffffffffffffffffffffffffffffffffffff1673ffffffffffffffffffffffffffffffffffffffff16815260200190815260200160002060000160149054906101000a900460ff1660028111156105a9576105a8611d56565b5b146105e9576040517f08c379a00000000000000000000000000000000000000000000000000000000081526004016105e090612075565b60405180910390fd5b6000806000838152602001908152602001600020905060005b81600501805490508110156106cc573373ffffffffffffffffffffffffffffffffffffffff1682600501828154811061063e5761063d612095565b5b9060005260206000200160009054906101000a900473ffffffffffffffffffffffffffffffffffffffff1673ffffffffffffffffffffffffffffffffffffffff16036106bf576040517f08c379a00000000000000000000000000000000000000000000000000000000081526004016106b690612136565b60405180910390fd5b8080600101915050610602565b5080600501339080600181540180825580915050600190039060005260206000200160009091909190916101000a81548173ffffffffffffffffffffffffffffffffffffffff021916908373ffffffffffffffffffffffffffffffffffffffff1602179055507f5978a47ce47cdeb8a43a1794142dd16f2f94e95103bd104783a42725c7fe8cff8233604051610763929190612156565b60405180910390a15050565b60025484106107b3576040517f08c379a00000000000000000000000000000000000000000000000000000000081526004016107aa90611ef1565b60405180910390fd5b60008085815260200190815260200160002060030160009054906101000a900460ff16610815576040517f08c379a000000000000000000000000000000000000000000000000000000000815260040161080c90611fe3565b60405180910390fd5b60018360ff161015801561082d575060078360ff1611155b61086c576040517f08c379a0000000000000000000000000000000000000000000000000000000008152600401610863906121cb565b60405180910390fd5b60188260ff16108015610882575060188160ff16105b801561089357508060ff168260ff16105b6108d2576040517f08c379a00000000000000000000000000000000000000000000000000000000081526004016108c990612237565b60405180910390fd5b600080600086815260200190815260200160002090506000600182600401546108fb9190612286565b905060405180606001604052808660ff1681526020018560ff1681526020018460ff1681525082600601600083815260200190815260200160002060008201518160000160006101000a81548160ff021916908360ff16021790555060208201518160000160016101000a81548160ff021916908360ff16021790555060408201518160000160026101000a81548160ff021916908360ff1602179055509050508082600401819055507f3ff69354bb51befb41cb392610be115187b4afcfed73d238a16f370c7f20491c868686866040516109da94939291906122ba565b60405180910390a1505050505050565b6060600160003373ffffffffffffffffffffffffffffffffffffffff1673ffffffffffffffffffffffffffffffffffffffff16815260200190815260200160002060000160159054906101000a900460ff16610a7b576040517f08c379a0000000000000000000000000000000000000000000000000000000008152600401610a729061234b565b60405180910390fd5b60006002811115610a8f57610a8e611d56565b5b600160003373ffffffffffffffffffffffffffffffffffffffff1673ffffffffffffffffffffffffffffffffffffffff16815260200190815260200160002060000160149054906101000a900460ff166002811115610af157610af0611d56565b5b14610b31576040517f08c379a0000000000000000000000000000000000000000000000000000000008152600401610b28906123dd565b60405180910390fd5b600060025467ffffffffffffffff811115610b4f57610b4e611a02565b5b604051908082528060200260200182016040528015610b7d5781602001602082028036833780820191505090505b5090506000805b600254811015610c78576000806000838152602001908152602001600020905060005b8160050180549050811015610c69573373ffffffffffffffffffffffffffffffffffffffff16826005018281548110610be357610be2612095565b5b9060005260206000200160009054906101000a900473ffffffffffffffffffffffffffffffffffffffff1673ffffffffffffffffffffffffffffffffffffffff1603610c5c5782858581518110610c3d57610c3c612095565b5b6020026020010181815250508380610c54906123fd565b945050610c69565b8080600101915050610ba7565b50508080600101915050610b84565b5060008167ffffffffffffffff811115610c9557610c94611a02565b5b604051908082528060200260200182016040528015610cc35781602001602082028036833780820191505090505b50905060005b82811015610d1857838181518110610ce457610ce3612095565b5b6020026020010151828281518110610cff57610cfe612095565b5b6020026020010181815250508080600101915050610cc9565b5080935050505090565b60025481565b6002548410610d6c576040517f08c379a0000000000000000000000000000000000000000000000000000000008152600401610d6390611ef1565b60405180910390fd5b60008085815260200190815260200160002060030160009054906101000a900460ff16610dce576040517f08c379a0000000000000000000000000000000000000000000000000000000008152600401610dc590611fe3565b60405180910390fd5b6000806000868152602001908152602001600020905083816000019081610df591906125f1565b5082816001019081610e0791906125f1565b508181600201819055507f61f1b503285f2baf5ae0ec7be5c9605a293c9d47bdaf9bdb36fc15c570615fe68585604051610e429291906126c3565b60405180910390a15050505050565b6000602052806000526040600020600091509050806000018054610e7490611f40565b80601f0160208091040260200160405190810160405280929190818152602001828054610ea090611f40565b8015610eed5780601f10610ec257610100808354040283529160200191610eed565b820191906000526020600020905b815481529060010190602001808311610ed057829003601f168201915b505050505090806001018054610f0290611f40565b80601f0160208091040260200160405190810160405280929190818152602001828054610f2e90611f40565b8015610f7b5780601f10610f5057610100808354040283529160200191610f7b565b820191906000526020600020905b815481529060010190602001808311610f5e57829003601f168201915b5050505050908060020154908060030160009054906101000a900460ff16908060040154905085565b6002548110610fe8576040517f08c379a0000000000000000000000000000000000000000000000000000000008152600401610fdf90611ef1565b60405180910390fd5b60008082815260200190815260200160002060030160009054906101000a900460ff1661104a576040517f08c379a000000000000000000000000000000000000000000000000000000000815260040161104190611fe3565b60405180910390fd5b600080600083815260200190815260200160002060030160006101000a81548160ff0219169083151502179055507f39eeda956a5b638cce21d44feb4e3279509fbaf8fb7776431f55f57a0cd21537816040516110a791906119dd565b60405180910390a150565b600160008373ffffffffffffffffffffffffffffffffffffffff1673ffffffffffffffffffffffffffffffffffffffff16815260200190815260200160002060000160159054906101000a900460ff1615611142576040517f08c379a00000000000000000000000000000000000000000000000000000000081526004016111399061273f565b60405180910390fd5b60405180606001604052808373ffffffffffffffffffffffffffffffffffffffff16815260200182600281111561117c5761117b611d56565b5b815260200160011515815250600160008473ffffffffffffffffffffffffffffffffffffffff1673ffffffffffffffffffffffffffffffffffffffff16815260200190815260200160002060008201518160000160006101000a81548173ffffffffffffffffffffffffffffffffffffffff021916908373ffffffffffffffffffffffffffffffffffffffff16021790555060208201518160000160146101000a81548160ff0219169083600281111561123957611238611d56565b5b021790555060408201518160000160156101000a81548160ff0219169083151502179055509050507f8e18574f8a7333e6a87112742a55853a643e2f0550f4e1a3a2c3f1bb2994441d828260405161129292919061275f565b60405180910390a15050565b6000600260008154809291906112b3906123fd565b91905055905060008060008381526020019081526020016000209050848160000190816112e091906125f1565b50838160010190816112f291906125f1565b5082816002018190555060018160030160006101000a81548160ff021916908315150217905550600081600401819055507fc2c844c5f6c72fe99b99de0942ba619e99957d3e8f7e614263ecfe40de952e5882866040516113549291906126c3565b60405180910390a15050505050565b60016020528060005260406000206000915090508060000160009054906101000a900473ffffffffffffffffffffffffffffffffffffffff16908060000160149054906101000a900460ff16908060000160159054906101000a900460ff16905083565b6060600060025467ffffffffffffffff8111156113e7576113e6611a02565b5b6040519080825280602002602001820160405280156114155781602001602082028036833780820191505090505b5090506000805b60025481101561148a5760008082815260200190815260200160002060030160009054906101000a900460ff161561147d578083838151811061146257611461612095565b5b6020026020010181815250508180611479906123fd565b9250505b808060010191505061141c565b5060008167ffffffffffffffff8111156114a7576114a6611a02565b5b6040519080825280602002602001820160405280156114d55781602001602082028036833780820191505090505b50905060005b8281101561152a578381815181106114f6576114f5612095565b5b602002602001015182828151811061151157611510612095565b5b60200260200101818152505080806001019150506114db565b5080935050505090565b6000806000600254851061157d576040517f08c379a000000000000000000000000000000000000000000000000000000000815260040161157490611ef1565b60405180910390fd5b60008086815260200190815260200160002060030160009054906101000a900460ff166115df576040517f08c379a00000000000000000000000000000000000000000000000000000000081526004016115d690611fe3565b60405180910390fd5b60008086815260200190815260200160002060040154841115611637576040517f08c379a000000000000000000000000000000000000000000000000000000000815260040161162e906127d4565b60405180910390fd5b6000806000878152602001908152602001600020600601600086815260200190815260200160002090508060000160009054906101000a900460ff168160000160019054906101000a900460ff168260000160029054906101000a900460ff16935093509350509250925092565b600360009054906101000a900473ffffffffffffffffffffffffffffffffffffffff1681565b6000604051905090565b600080fd5b600080fd5b6000819050919050565b6116f2816116df565b81146116fd57600080fd5b50565b60008135905061170f816116e9565b92915050565b60006020828403121561172b5761172a6116d5565b5b600061173984828501611700565b91505092915050565b600081519050919050565b600082825260208201905092915050565b60005b8381101561177c578082015181840152602081019050611761565b60008484015250505050565b6000601f19601f8301169050919050565b60006117a482611742565b6117ae818561174d565b93506117be81856020860161175e565b6117c781611788565b840191505092915050565b6117db816116df565b82525050565b60008115159050919050565b6117f6816117e1565b82525050565b600060a08201905081810360008301526118168188611799565b9050818103602083015261182a8187611799565b905061183960408301866117d2565b61184660608301856117ed565b61185360808301846117d2565b9695505050505050565b600060ff82169050919050565b6118738161185d565b811461187e57600080fd5b50565b6000813590506118908161186a565b92915050565b600080600080608085870312156118b0576118af6116d5565b5b60006118be87828801611700565b94505060206118cf87828801611881565b93505060406118e087828801611881565b92505060606118f187828801611881565b91505092959194509250565b600081519050919050565b600082825260208201905092915050565b6000819050602082019050919050565b611932816116df565b82525050565b60006119448383611929565b60208301905092915050565b6000602082019050919050565b6000611968826118fd565b6119728185611908565b935061197d83611919565b8060005b838110156119ae5781516119958882611938565b97506119a083611950565b925050600181019050611981565b5085935050505092915050565b600060208201905081810360008301526119d5818461195d565b905092915050565b60006020820190506119f260008301846117d2565b92915050565b600080fd5b600080fd5b7f4e487b7100000000000000000000000000000000000000000000000000000000600052604160045260246000fd5b611a3a82611788565b810181811067ffffffffffffffff82111715611a5957611a58611a02565b5b80604052505050565b6000611a6c6116cb565b9050611a788282611a31565b919050565b600067ffffffffffffffff821115611a9857611a97611a02565b5b611aa182611788565b9050602081019050919050565b82818337600083830152505050565b6000611ad0611acb84611a7d565b611a62565b905082815260208101848484011115611aec57611aeb6119fd565b5b611af7848285611aae565b509392505050565b600082601f830112611b1457611b136119f8565b5b8135611b24848260208601611abd565b91505092915050565b60008060008060808587031215611b4757611b466116d5565b5b6000611b5587828801611700565b945050602085013567ffffffffffffffff811115611b7657611b756116da565b5b611b8287828801611aff565b935050604085013567ffffffffffffffff811115611ba357611ba26116da565b5b611baf87828801611aff565b9250506060611bc087828801611700565b91505092959194509250565b600073ffffffffffffffffffffffffffffffffffffffff82169050919050565b6000611bf782611bcc565b9050919050565b611c0781611bec565b8114611c1257600080fd5b50565b600081359050611c2481611bfe565b92915050565b60038110611c3757600080fd5b50565b600081359050611c4981611c2a565b92915050565b60008060408385031215611c6657611c656116d5565b5b6000611c7485828601611c15565b9250506020611c8585828601611c3a565b9150509250929050565b600080600060608486031215611ca857611ca76116d5565b5b600084013567ffffffffffffffff811115611cc657611cc56116da565b5b611cd286828701611aff565b935050602084013567ffffffffffffffff811115611cf357611cf26116da565b5b611cff86828701611aff565b9250506040611d1086828701611700565b9150509250925092565b600060208284031215611d3057611d2f6116d5565b5b6000611d3e84828501611c15565b91505092915050565b611d5081611bec565b82525050565b7f4e487b7100000000000000000000000000000000000000000000000000000000600052602160045260246000fd5b60038110611d9657611d95611d56565b5b50565b6000819050611da782611d85565b919050565b6000611db782611d99565b9050919050565b611dc781611dac565b82525050565b6000606082019050611de26000830186611d47565b611def6020830185611dbe565b611dfc60408301846117ed565b949350505050565b60008060408385031215611e1b57611e1a6116d5565b5b6000611e2985828601611700565b9250506020611e3a85828601611700565b9150509250929050565b611e4d8161185d565b82525050565b6000606082019050611e686000830186611e44565b611e756020830185611e44565b611e826040830184611e44565b949350505050565b6000602082019050611e9f6000830184611d47565b92915050565b7f496e76616c696420636f75727365204944000000000000000000000000000000600082015250565b6000611edb60118361174d565b9150611ee682611ea5565b602082019050919050565b60006020820190508181036000830152611f0a81611ece565b9050919050565b7f4e487b7100000000000000000000000000000000000000000000000000000000600052602260045260246000fd5b60006002820490506001821680611f5857607f821691505b602082108103611f6b57611f6a611f11565b5b50919050565b7f436f7572736520646f6573206e6f74206578697374206f72206861732062656560008201527f6e2064656c657465640000000000000000000000000000000000000000000000602082015250565b6000611fcd60298361174d565b9150611fd882611f71565b604082019050919050565b60006020820190508181036000830152611ffc81611fc0565b9050919050565b7f4f6e6c792073747564656e74732063616e20726567697374657220696e20636f60008201527f7572736573000000000000000000000000000000000000000000000000000000602082015250565b600061205f60258361174d565b915061206a82612003565b604082019050919050565b6000602082019050818103600083015261208e81612052565b9050919050565b7f4e487b7100000000000000000000000000000000000000000000000000000000600052603260045260246000fd5b7f53747564656e7420616c7265616479207265676973746572656420696e20746860008201527f6520636f75727365000000000000000000000000000000000000000000000000602082015250565b600061212060288361174d565b915061212b826120c4565b604082019050919050565b6000602082019050818103600083015261214f81612113565b9050919050565b600060408201905061216b60008301856117d2565b6121786020830184611d47565b9392505050565b7f496e76616c696420646179000000000000000000000000000000000000000000600082015250565b60006121b5600b8361174d565b91506121c08261217f565b602082019050919050565b600060208201905081810360008301526121e4816121a8565b9050919050565b7f496e76616c6964207363686564756c6500000000000000000000000000000000600082015250565b600061222160108361174d565b915061222c826121eb565b602082019050919050565b6000602082019050818103600083015261225081612214565b9050919050565b7f4e487b7100000000000000000000000000000000000000000000000000000000600052601160045260246000fd5b6000612291826116df565b915061229c836116df565b92508282019050808211156122b4576122b3612257565b5b92915050565b60006080820190506122cf60008301876117d2565b6122dc6020830186611e44565b6122e96040830185611e44565b6122f66060830184611e44565b95945050505050565b7f55736572206e6f74207265676973746572656400000000000000000000000000600082015250565b600061233560138361174d565b9150612340826122ff565b602082019050919050565b6000602082019050818103600083015261236481612328565b9050919050565b7f4f6e6c792073747564656e74732063616e206861766520656e726f6c6c65642060008201527f636f757273657300000000000000000000000000000000000000000000000000602082015250565b60006123c760278361174d565b91506123d28261236b565b604082019050919050565b600060208201905081810360008301526123f6816123ba565b9050919050565b6000612408826116df565b91507fffffffffffffffffffffffffffffffffffffffffffffffffffffffffffffffff820361243a57612439612257565b5b600182019050919050565b60008190508160005260206000209050919050565b60006020601f8301049050919050565b600082821b905092915050565b6000600883026124a77fffffffffffffffffffffffffffffffffffffffffffffffffffffffffffffffff8261246a565b6124b1868361246a565b95508019841693508086168417925050509392505050565b6000819050919050565b60006124ee6124e96124e4846116df565b6124c9565b6116df565b9050919050565b6000819050919050565b612508836124d3565b61251c612514826124f5565b848454612477565b825550505050565b600090565b612531612524565b61253c8184846124ff565b505050565b5b8181101561256057612555600082612529565b600181019050612542565b5050565b601f8211156125a55761257681612445565b61257f8461245a565b8101602085101561258e578190505b6125a261259a8561245a565b830182612541565b50505b505050565b600082821c905092915050565b60006125c8600019846008026125aa565b1980831691505092915050565b60006125e183836125b7565b9150826002028217905092915050565b6125fa82611742565b67ffffffffffffffff81111561261357612612611a02565b5b61261d8254611f40565b612628828285612564565b600060209050601f83116001811461265b5760008415612649578287015190505b61265385826125d5565b8655506126bb565b601f19841661266986612445565b60005b828110156126915784890151825560018201915060208501945060208101905061266c565b868310156126ae57848901516126aa601f8916826125b7565b8355505b6001600288020188555050505b505050505050565b60006040820190506126d860008301856117d2565b81810360208301526126ea8184611799565b90509392505050565b7f5573657220616c72656164792072656769737465726564000000000000000000600082015250565b600061272960178361174d565b9150612734826126f3565b602082019050919050565b600060208201905081810360008301526127588161271c565b9050919050565b60006040820190506127746000830185611d47565b6127816020830184611dbe565b9392505050565b7f496e76616c6964207363686564756c6520494400000000000000000000000000600082015250565b60006127be60138361174d565b91506127c982612788565b602082019050919050565b600060208201905081810360008301526127ed816127b1565b905091905056fea2646970667358221220c5a396dff887ddfe3604a597a72ae296968bee519e3c6391d4f557cb99e2973264736f6c634300081b0033","opcodes":"PUSH1 0x80 PUSH1 0x40 MSTORE CALLVALUE DUP1 ISZERO PUSH2 0x10 JUMPI PUSH1 0x0 DUP1 REVERT JUMPDEST POP CALLER PUSH1 0x3 PUSH1 0x0 PUSH2 0x100 EXP DUP2 SLOAD DUP2 PUSH20 0xFFFFFFFFFFFFFFFFFFFFFFFFFFFFFFFFFFFFFFFF MUL NOT AND SWAP1 DUP4 PUSH20 0xFFFFFFFFFFFFFFFFFFFFFFFFFFFFFFFFFFFFFFFF AND MUL OR SWAP1 SSTORE POP PUSH1 0x40 MLOAD DUP1 PUSH1 0x60 ADD PUSH1 0x40 MSTORE DUP1 CALLER PUSH20 0xFFFFFFFFFFFFFFFFFFFFFFFFFFFFFFFFFFFFFFFF AND DUP2 MSTORE PUSH1 0x20 ADD PUSH1 0x2 DUP1 DUP2 GT ISZERO PUSH2 0x8C JUMPI PUSH2 0x8B PUSH2 0x176 JUMP JUMPDEST JUMPDEST DUP2 MSTORE PUSH1 0x20 ADD PUSH1 0x1 ISZERO ISZERO DUP2 MSTORE POP PUSH1 0x1 PUSH1 0x0 CALLER PUSH20 0xFFFFFFFFFFFFFFFFFFFFFFFFFFFFFFFFFFFFFFFF AND PUSH20 0xFFFFFFFFFFFFFFFFFFFFFFFFFFFFFFFFFFFFFFFF AND DUP2 MSTORE PUSH1 0x20 ADD SWAP1 DUP2 MSTORE PUSH1 0x20 ADD PUSH1 0x0 KECCAK256 PUSH1 0x0 DUP3 ADD MLOAD DUP2 PUSH1 0x0 ADD PUSH1 0x0 PUSH2 0x100 EXP DUP2 SLOAD DUP2 PUSH20 0xFFFFFFFFFFFFFFFFFFFFFFFFFFFFFFFFFFFFFFFF MUL NOT AND SWAP1 DUP4 PUSH20 0xFFFFFFFFFFFFFFFFFFFFFFFFFFFFFFFFFFFFFFFF AND MUL OR SWAP1 SSTORE POP PUSH1 0x20 DUP3 ADD MLOAD DUP2 PUSH1 0x0 ADD PUSH1 0x14 PUSH2 0x100 EXP DUP2 SLOAD DUP2 PUSH1 0xFF MUL NOT AND SWAP1 DUP4 PUSH1 0x2 DUP2 GT ISZERO PUSH2 0x149 JUMPI PUSH2 0x148 PUSH2 0x176 JUMP JUMPDEST JUMPDEST MUL OR SWAP1 SSTORE POP PUSH1 0x40 DUP3 ADD MLOAD DUP2 PUSH1 0x0 ADD PUSH1 0x15 PUSH2 0x100 EXP DUP2 SLOAD DUP2 PUSH1 0xFF MUL NOT AND SWAP1 DUP4 ISZERO ISZERO MUL OR SWAP1 SSTORE POP SWAP1 POP POP PUSH2 0x1A5 JUMP JUMPDEST PUSH32 0x4E487B7100000000000000000000000000000000000000000000000000000000 PUSH1 0x0 MSTORE PUSH1 0x21 PUSH1 0x4 MSTORE PUSH1 0x24 PUSH1 0x0 REVERT JUMPDEST PUSH2 0x282A DUP1 PUSH2 0x1B4 PUSH1 0x0 CODECOPY PUSH1 0x0 RETURN INVALID PUSH1 0x80 PUSH1 0x40 MSTORE CALLVALUE DUP1 ISZERO PUSH2 0x10 JUMPI PUSH1 0x0 DUP1 REVERT JUMPDEST POP PUSH1 0x4 CALLDATASIZE LT PUSH2 0xEA JUMPI PUSH1 0x0 CALLDATALOAD PUSH1 0xE0 SHR DUP1 PUSH4 0x9DAD8D22 GT PUSH2 0x8C JUMPI DUP1 PUSH4 0xA87430BA GT PUSH2 0x66 JUMPI DUP1 PUSH4 0xA87430BA EQ PUSH2 0x23B JUMPI DUP1 PUSH4 0xC53069C7 EQ PUSH2 0x26D JUMPI DUP1 PUSH4 0xF43E5E42 EQ PUSH2 0x28B JUMPI DUP1 PUSH4 0xF851A440 EQ PUSH2 0x2BD JUMPI PUSH2 0xEA JUMP JUMPDEST DUP1 PUSH4 0x9DAD8D22 EQ PUSH2 0x1E7 JUMPI DUP1 PUSH4 0x9E9FA097 EQ PUSH2 0x203 JUMPI DUP1 PUSH4 0xA4ADB24B EQ PUSH2 0x21F JUMPI PUSH2 0xEA JUMP JUMPDEST DUP1 PUSH4 0x83517A4F GT PUSH2 0xC8 JUMPI DUP1 PUSH4 0x83517A4F EQ PUSH2 0x15B JUMPI DUP1 PUSH4 0x87AC1860 EQ PUSH2 0x179 JUMPI DUP1 PUSH4 0x91AAC065 EQ PUSH2 0x197 JUMPI DUP1 PUSH4 0x96F979D2 EQ PUSH2 0x1B3 JUMPI PUSH2 0xEA JUMP JUMPDEST DUP1 PUSH4 0xB91E28D EQ PUSH2 0xEF JUMPI DUP1 PUSH4 0x19384DD1 EQ PUSH2 0x123 JUMPI DUP1 PUSH4 0x77B31134 EQ PUSH2 0x13F JUMPI JUMPDEST PUSH1 0x0 DUP1 REVERT JUMPDEST PUSH2 0x109 PUSH1 0x4 DUP1 CALLDATASIZE SUB DUP2 ADD SWAP1 PUSH2 0x104 SWAP2 SWAP1 PUSH2 0x1715 JUMP JUMPDEST PUSH2 0x2DB JUMP JUMPDEST PUSH1 0x40 MLOAD PUSH2 0x11A SWAP6 SWAP5 SWAP4 SWAP3 SWAP2 SWAP1 PUSH2 0x17FC JUMP JUMPDEST PUSH1 0x40 MLOAD DUP1 SWAP2 SUB SWAP1 RETURN JUMPDEST PUSH2 0x13D PUSH1 0x4 DUP1 CALLDATASIZE SUB DUP2 ADD SWAP1 PUSH2 0x138 SWAP2 SWAP1 PUSH2 0x1715 JUMP JUMPDEST PUSH2 0x48D JUMP JUMPDEST STOP JUMPDEST PUSH2 0x159 PUSH1 0x4 DUP1 CALLDATASIZE SUB DUP2 ADD SWAP1 PUSH2 0x154 SWAP2 SWAP1 PUSH2 0x1896 JUMP JUMPDEST PUSH2 0x76F JUMP JUMPDEST STOP JUMPDEST PUSH2 0x163 PUSH2 0x9EA JUMP JUMPDEST PUSH1 0x40 MLOAD PUSH2 0x170 SWAP2 SWAP1 PUSH2 0x19BB JUMP JUMPDEST PUSH1 0x40 MLOAD DUP1 SWAP2 SUB SWAP1 RETURN JUMPDEST PUSH2 0x181 PUSH2 0xD22 JUMP JUMPDEST PUSH1 0x40 MLOAD PUSH2 0x18E SWAP2 SWAP1 PUSH2 0x19DD JUMP JUMPDEST PUSH1 0x40 MLOAD DUP1 SWAP2 SUB SWAP1 RETURN JUMPDEST PUSH2 0x1B1 PUSH1 0x4 DUP1 CALLDATASIZE SUB DUP2 ADD SWAP1 PUSH2 0x1AC SWAP2 SWAP1 PUSH2 0x1B2D JUMP JUMPDEST PUSH2 0xD28 JUMP JUMPDEST STOP JUMPDEST PUSH2 0x1CD PUSH1 0x4 DUP1 CALLDATASIZE SUB DUP2 ADD SWAP1 PUSH2 0x1C8 SWAP2 SWAP1 PUSH2 0x1715 JUMP JUMPDEST PUSH2 0xE51 JUMP JUMPDEST PUSH1 0x40 MLOAD PUSH2 0x1DE SWAP6 SWAP5 SWAP4 SWAP3 SWAP2 SWAP1 PUSH2 0x17FC JUMP JUMPDEST PUSH1 0x40 MLOAD DUP1 SWAP2 SUB SWAP1 RETURN JUMPDEST PUSH2 0x201 PUSH1 0x4 DUP1 CALLDATASIZE SUB DUP2 ADD SWAP1 PUSH2 0x1FC SWAP2 SWAP1 PUSH2 0x1715 JUMP JUMPDEST PUSH2 0xFA4 JUMP JUMPDEST STOP JUMPDEST PUSH2 0x21D PUSH1 0x4 DUP1 CALLDATASIZE SUB DUP2 ADD SWAP1 PUSH2 0x218 SWAP2 SWAP1 PUSH2 0x1C4F JUMP JUMPDEST PUSH2 0x10B2 JUMP JUMPDEST STOP JUMPDEST PUSH2 0x239 PUSH1 0x4 DUP1 CALLDATASIZE SUB DUP2 ADD SWAP1 PUSH2 0x234 SWAP2 SWAP1 PUSH2 0x1C8F JUMP JUMPDEST PUSH2 0x129E JUMP JUMPDEST STOP JUMPDEST PUSH2 0x255 PUSH1 0x4 DUP1 CALLDATASIZE SUB DUP2 ADD SWAP1 PUSH2 0x250 SWAP2 SWAP1 PUSH2 0x1D1A JUMP JUMPDEST PUSH2 0x1363 JUMP JUMPDEST PUSH1 0x40 MLOAD PUSH2 0x264 SWAP4 SWAP3 SWAP2 SWAP1 PUSH2 0x1DCD JUMP JUMPDEST PUSH1 0x40 MLOAD DUP1 SWAP2 SUB SWAP1 RETURN JUMPDEST PUSH2 0x275 PUSH2 0x13C7 JUMP JUMPDEST PUSH1 0x40 MLOAD PUSH2 0x282 SWAP2 SWAP1 PUSH2 0x19BB JUMP JUMPDEST PUSH1 0x40 MLOAD DUP1 SWAP2 SUB SWAP1 RETURN JUMPDEST PUSH2 0x2A5 PUSH1 0x4 DUP1 CALLDATASIZE SUB DUP2 ADD SWAP1 PUSH2 0x2A0 SWAP2 SWAP1 PUSH2 0x1E04 JUMP JUMPDEST PUSH2 0x1534 JUMP JUMPDEST PUSH1 0x40 MLOAD PUSH2 0x2B4 SWAP4 SWAP3 SWAP2 SWAP1 PUSH2 0x1E53 JUMP JUMPDEST PUSH1 0x40 MLOAD DUP1 SWAP2 SUB SWAP1 RETURN JUMPDEST PUSH2 0x2C5 PUSH2 0x16A5 JUMP JUMPDEST PUSH1 0x40 MLOAD PUSH2 0x2D2 SWAP2 SWAP1 PUSH2 0x1E8A JUMP JUMPDEST PUSH1 0x40 MLOAD DUP1 SWAP2 SUB SWAP1 RETURN JUMPDEST PUSH1 0x60 DUP1 PUSH1 0x0 DUP1 PUSH1 0x0 PUSH1 0x2 SLOAD DUP7 LT PUSH2 0x327 JUMPI PUSH1 0x40 MLOAD PUSH32 0x8C379A000000000000000000000000000000000000000000000000000000000 DUP2 MSTORE PUSH1 0x4 ADD PUSH2 0x31E SWAP1 PUSH2 0x1EF1 JUMP JUMPDEST PUSH1 0x40 MLOAD DUP1 SWAP2 SUB SWAP1 REVERT JUMPDEST PUSH1 0x0 DUP1 PUSH1 0x0 DUP9 DUP2 MSTORE PUSH1 0x20 ADD SWAP1 DUP2 MSTORE PUSH1 0x20 ADD PUSH1 0x0 KECCAK256 SWAP1 POP DUP1 PUSH1 0x0 ADD DUP2 PUSH1 0x1 ADD DUP3 PUSH1 0x2 ADD SLOAD DUP4 PUSH1 0x3 ADD PUSH1 0x0 SWAP1 SLOAD SWAP1 PUSH2 0x100 EXP SWAP1 DIV PUSH1 0xFF AND DUP5 PUSH1 0x4 ADD SLOAD DUP5 DUP1 SLOAD PUSH2 0x36D SWAP1 PUSH2 0x1F40 JUMP JUMPDEST DUP1 PUSH1 0x1F ADD PUSH1 0x20 DUP1 SWAP2 DIV MUL PUSH1 0x20 ADD PUSH1 0x40 MLOAD SWAP1 DUP2 ADD PUSH1 0x40 MSTORE DUP1 SWAP3 SWAP2 SWAP1 DUP2 DUP2 MSTORE PUSH1 0x20 ADD DUP3 DUP1 SLOAD PUSH2 0x399 SWAP1 PUSH2 0x1F40 JUMP JUMPDEST DUP1 ISZERO PUSH2 0x3E6 JUMPI DUP1 PUSH1 0x1F LT PUSH2 0x3BB JUMPI PUSH2 0x100 DUP1 DUP4 SLOAD DIV MUL DUP4 MSTORE SWAP2 PUSH1 0x20 ADD SWAP2 PUSH2 0x3E6 JUMP JUMPDEST DUP3 ADD SWAP2 SWAP1 PUSH1 0x0 MSTORE PUSH1 0x20 PUSH1 0x0 KECCAK256 SWAP1 JUMPDEST DUP2 SLOAD DUP2 MSTORE SWAP1 PUSH1 0x1 ADD SWAP1 PUSH1 0x20 ADD DUP1 DUP4 GT PUSH2 0x3C9 JUMPI DUP3 SWAP1 SUB PUSH1 0x1F AND DUP3 ADD SWAP2 JUMPDEST POP POP POP POP POP SWAP5 POP DUP4 DUP1 SLOAD PUSH2 0x3F9 SWAP1 PUSH2 0x1F40 JUMP JUMPDEST DUP1 PUSH1 0x1F ADD PUSH1 0x20 DUP1 SWAP2 DIV MUL PUSH1 0x20 ADD PUSH1 0x40 MLOAD SWAP1 DUP2 ADD PUSH1 0x40 MSTORE DUP1 SWAP3 SWAP2 SWAP1 DUP2 DUP2 MSTORE PUSH1 0x20 ADD DUP3 DUP1 SLOAD PUSH2 0x425 SWAP1 PUSH2 0x1F40 JUMP JUMPDEST DUP1 ISZERO PUSH2 0x472 JUMPI DUP1 PUSH1 0x1F LT PUSH2 0x447 JUMPI PUSH2 0x100 DUP1 DUP4 SLOAD DIV MUL DUP4 MSTORE SWAP2 PUSH1 0x20 ADD SWAP2 PUSH2 0x472 JUMP JUMPDEST DUP3 ADD SWAP2 SWAP1 PUSH1 0x0 MSTORE PUSH1 0x20 PUSH1 0x0 KECCAK256 SWAP1 JUMPDEST DUP2 SLOAD DUP2 MSTORE SWAP1 PUSH1 0x1 ADD SWAP1 PUSH1 0x20 ADD DUP1 DUP4 GT PUSH2 0x455 JUMPI DUP3 SWAP1 SUB PUSH1 0x1F AND DUP3 ADD SWAP2 JUMPDEST POP POP POP POP POP SWAP4 POP SWAP6 POP SWAP6 POP SWAP6 POP SWAP6 POP SWAP6 POP POP SWAP2 SWAP4 SWAP6 SWAP1 SWAP3 SWAP5 POP JUMP JUMPDEST PUSH1 0x2 SLOAD DUP2 LT PUSH2 0x4D1 JUMPI PUSH1 0x40 MLOAD PUSH32 0x8C379A000000000000000000000000000000000000000000000000000000000 DUP2 MSTORE PUSH1 0x4 ADD PUSH2 0x4C8 SWAP1 PUSH2 0x1EF1 JUMP JUMPDEST PUSH1 0x40 MLOAD DUP1 SWAP2 SUB SWAP1 REVERT JUMPDEST PUSH1 0x0 DUP1 DUP3 DUP2 MSTORE PUSH1 0x20 ADD SWAP1 DUP2 MSTORE PUSH1 0x20 ADD PUSH1 0x0 KECCAK256 PUSH1 0x3 ADD PUSH1 0x0 SWAP1 SLOAD SWAP1 PUSH2 0x100 EXP SWAP1 DIV PUSH1 0xFF AND PUSH2 0x533 JUMPI PUSH1 0x40 MLOAD PUSH32 0x8C379A000000000000000000000000000000000000000000000000000000000 DUP2 MSTORE PUSH1 0x4 ADD PUSH2 0x52A SWAP1 PUSH2 0x1FE3 JUMP JUMPDEST PUSH1 0x40 MLOAD DUP1 SWAP2 SUB SWAP1 REVERT JUMPDEST PUSH1 0x0 PUSH1 0x2 DUP2 GT ISZERO PUSH2 0x547 JUMPI PUSH2 0x546 PUSH2 0x1D56 JUMP JUMPDEST JUMPDEST PUSH1 0x1 PUSH1 0x0 CALLER PUSH20 0xFFFFFFFFFFFFFFFFFFFFFFFFFFFFFFFFFFFFFFFF AND PUSH20 0xFFFFFFFFFFFFFFFFFFFFFFFFFFFFFFFFFFFFFFFF AND DUP2 MSTORE PUSH1 0x20 ADD SWAP1 DUP2 MSTORE PUSH1 0x20 ADD PUSH1 0x0 KECCAK256 PUSH1 0x0 ADD PUSH1 0x14 SWAP1 SLOAD SWAP1 PUSH2 0x100 EXP SWAP1 DIV PUSH1 0xFF AND PUSH1 0x2 DUP2 GT ISZERO PUSH2 0x5A9 JUMPI PUSH2 0x5A8 PUSH2 0x1D56 JUMP JUMPDEST JUMPDEST EQ PUSH2 0x5E9 JUMPI PUSH1 0x40 MLOAD PUSH32 0x8C379A000000000000000000000000000000000000000000000000000000000 DUP2 MSTORE PUSH1 0x4 ADD PUSH2 0x5E0 SWAP1 PUSH2 0x2075 JUMP JUMPDEST PUSH1 0x40 MLOAD DUP1 SWAP2 SUB SWAP1 REVERT JUMPDEST PUSH1 0x0 DUP1 PUSH1 0x0 DUP4 DUP2 MSTORE PUSH1 0x20 ADD SWAP1 DUP2 MSTORE PUSH1 0x20 ADD PUSH1 0x0 KECCAK256 SWAP1 POP PUSH1 0x0 JUMPDEST DUP2 PUSH1 0x5 ADD DUP1 SLOAD SWAP1 POP DUP2 LT ISZERO PUSH2 0x6CC JUMPI CALLER PUSH20 0xFFFFFFFFFFFFFFFFFFFFFFFFFFFFFFFFFFFFFFFF AND DUP3 PUSH1 0x5 ADD DUP3 DUP2 SLOAD DUP2 LT PUSH2 0x63E JUMPI PUSH2 0x63D PUSH2 0x2095 JUMP JUMPDEST JUMPDEST SWAP1 PUSH1 0x0 MSTORE PUSH1 0x20 PUSH1 0x0 KECCAK256 ADD PUSH1 0x0 SWAP1 SLOAD SWAP1 PUSH2 0x100 EXP SWAP1 DIV PUSH20 0xFFFFFFFFFFFFFFFFFFFFFFFFFFFFFFFFFFFFFFFF AND PUSH20 0xFFFFFFFFFFFFFFFFFFFFFFFFFFFFFFFFFFFFFFFF AND SUB PUSH2 0x6BF JUMPI PUSH1 0x40 MLOAD PUSH32 0x8C379A000000000000000000000000000000000000000000000000000000000 DUP2 MSTORE PUSH1 0x4 ADD PUSH2 0x6B6 SWAP1 PUSH2 0x2136 JUMP JUMPDEST PUSH1 0x40 MLOAD DUP1 SWAP2 SUB SWAP1 REVERT JUMPDEST DUP1 DUP1 PUSH1 0x1 ADD SWAP2 POP POP PUSH2 0x602 JUMP JUMPDEST POP DUP1 PUSH1 0x5 ADD CALLER SWAP1 DUP1 PUSH1 0x1 DUP2 SLOAD ADD DUP1 DUP3 SSTORE DUP1 SWAP2 POP POP PUSH1 0x1 SWAP1 SUB SWAP1 PUSH1 0x0 MSTORE PUSH1 0x20 PUSH1 0x0 KECCAK256 ADD PUSH1 0x0 SWAP1 SWAP2 SWAP1 SWAP2 SWAP1 SWAP2 PUSH2 0x100 EXP DUP2 SLOAD DUP2 PUSH20 0xFFFFFFFFFFFFFFFFFFFFFFFFFFFFFFFFFFFFFFFF MUL NOT AND SWAP1 DUP4 PUSH20 0xFFFFFFFFFFFFFFFFFFFFFFFFFFFFFFFFFFFFFFFF AND MUL OR SWAP1 SSTORE POP PUSH32 0x5978A47CE47CDEB8A43A1794142DD16F2F94E95103BD104783A42725C7FE8CFF DUP3 CALLER PUSH1 0x40 MLOAD PUSH2 0x763 SWAP3 SWAP2 SWAP1 PUSH2 0x2156 JUMP JUMPDEST PUSH1 0x40 MLOAD DUP1 SWAP2 SUB SWAP1 LOG1 POP POP JUMP JUMPDEST PUSH1 0x2 SLOAD DUP5 LT PUSH2 0x7B3 JUMPI PUSH1 0x40 MLOAD PUSH32 0x8C379A000000000000000000000000000000000000000000000000000000000 DUP2 MSTORE PUSH1 0x4 ADD PUSH2 0x7AA SWAP1 PUSH2 0x1EF1 JUMP JUMPDEST PUSH1 0x40 MLOAD DUP1 SWAP2 SUB SWAP1 REVERT JUMPDEST PUSH1 0x0 DUP1 DUP6 DUP2 MSTORE PUSH1 0x20 ADD SWAP1 DUP2 MSTORE PUSH1 0x20 ADD PUSH1 0x0 KECCAK256 PUSH1 0x3 ADD PUSH1 0x0 SWAP1 SLOAD SWAP1 PUSH2 0x100 EXP SWAP1 DIV PUSH1 0xFF AND PUSH2 0x815 JUMPI PUSH1 0x40 MLOAD PUSH32 0x8C379A000000000000000000000000000000000000000000000000000000000 DUP2 MSTORE PUSH1 0x4 ADD PUSH2 0x80C SWAP1 PUSH2 0x1FE3 JUMP JUMPDEST PUSH1 0x40 MLOAD DUP1 SWAP2 SUB SWAP1 REVERT JUMPDEST PUSH1 0x1 DUP4 PUSH1 0xFF AND LT ISZERO DUP1 ISZERO PUSH2 0x82D JUMPI POP PUSH1 0x7 DUP4 PUSH1 0xFF AND GT ISZERO JUMPDEST PUSH2 0x86C JUMPI PUSH1 0x40 MLOAD PUSH32 0x8C379A000000000000000000000000000000000000000000000000000000000 DUP2 MSTORE PUSH1 0x4 ADD PUSH2 0x863 SWAP1 PUSH2 0x21CB JUMP JUMPDEST PUSH1 0x40 MLOAD DUP1 SWAP2 SUB SWAP1 REVERT JUMPDEST PUSH1 0x18 DUP3 PUSH1 0xFF AND LT DUP1 ISZERO PUSH2 0x882 JUMPI POP PUSH1 0x18 DUP2 PUSH1 0xFF AND LT JUMPDEST DUP1 ISZERO PUSH2 0x893 JUMPI POP DUP1 PUSH1 0xFF AND DUP3 PUSH1 0xFF AND LT JUMPDEST PUSH2 0x8D2 JUMPI PUSH1 0x40 MLOAD PUSH32 0x8C379A000000000000000000000000000000000000000000000000000000000 DUP2 MSTORE PUSH1 0x4 ADD PUSH2 0x8C9 SWAP1 PUSH2 0x2237 JUMP JUMPDEST PUSH1 0x40 MLOAD DUP1 SWAP2 SUB SWAP1 REVERT JUMPDEST PUSH1 0x0 DUP1 PUSH1 0x0 DUP7 DUP2 MSTORE PUSH1 0x20 ADD SWAP1 DUP2 MSTORE PUSH1 0x20 ADD PUSH1 0x0 KECCAK256 SWAP1 POP PUSH1 0x0 PUSH1 0x1 DUP3 PUSH1 0x4 ADD SLOAD PUSH2 0x8FB SWAP2 SWAP1 PUSH2 0x2286 JUMP JUMPDEST SWAP1 POP PUSH1 0x40 MLOAD DUP1 PUSH1 0x60 ADD PUSH1 0x40 MSTORE DUP1 DUP7 PUSH1 0xFF AND DUP2 MSTORE PUSH1 0x20 ADD DUP6 PUSH1 0xFF AND DUP2 MSTORE PUSH1 0x20 ADD DUP5 PUSH1 0xFF AND DUP2 MSTORE POP DUP3 PUSH1 0x6 ADD PUSH1 0x0 DUP4 DUP2 MSTORE PUSH1 0x20 ADD SWAP1 DUP2 MSTORE PUSH1 0x20 ADD PUSH1 0x0 KECCAK256 PUSH1 0x0 DUP3 ADD MLOAD DUP2 PUSH1 0x0 ADD PUSH1 0x0 PUSH2 0x100 EXP DUP2 SLOAD DUP2 PUSH1 0xFF MUL NOT AND SWAP1 DUP4 PUSH1 0xFF AND MUL OR SWAP1 SSTORE POP PUSH1 0x20 DUP3 ADD MLOAD DUP2 PUSH1 0x0 ADD PUSH1 0x1 PUSH2 0x100 EXP DUP2 SLOAD DUP2 PUSH1 0xFF MUL NOT AND SWAP1 DUP4 PUSH1 0xFF AND MUL OR SWAP1 SSTORE POP PUSH1 0x40 DUP3 ADD MLOAD DUP2 PUSH1 0x0 ADD PUSH1 0x2 PUSH2 0x100 EXP DUP2 SLOAD DUP2 PUSH1 0xFF MUL NOT AND SWAP1 DUP4 PUSH1 0xFF AND MUL OR SWAP1 SSTORE POP SWAP1 POP POP DUP1 DUP3 PUSH1 0x4 ADD DUP2 SWAP1 SSTORE POP PUSH32 0x3FF69354BB51BEFB41CB392610BE115187B4AFCFED73D238A16F370C7F20491C DUP7 DUP7 DUP7 DUP7 PUSH1 0x40 MLOAD PUSH2 0x9DA SWAP5 SWAP4 SWAP3 SWAP2 SWAP1 PUSH2 0x22BA JUMP JUMPDEST PUSH1 0x40 MLOAD DUP1 SWAP2 SUB SWAP1 LOG1 POP POP POP POP POP POP JUMP JUMPDEST PUSH1 0x60 PUSH1 0x1 PUSH1 0x0 CALLER PUSH20 0xFFFFFFFFFFFFFFFFFFFFFFFFFFFFFFFFFFFFFFFF AND PUSH20 0xFFFFFFFFFFFFFFFFFFFFFFFFFFFFFFFFFFFFFFFF AND DUP2 MSTORE PUSH1 0x20 ADD SWAP1 DUP2 MSTORE PUSH1 0x20 ADD PUSH1 0x0 KECCAK256 PUSH1 0x0 ADD PUSH1 0x15 SWAP1 SLOAD SWAP1 PUSH2 0x100 EXP SWAP1 DIV PUSH1 0xFF AND PUSH2 0xA7B JUMPI PUSH1 0x40 MLOAD PUSH32 0x8C379A000000000000000000000000000000000000000000000000000000000 DUP2 MSTORE PUSH1 0x4 ADD PUSH2 0xA72 SWAP1 PUSH2 0x234B JUMP JUMPDEST PUSH1 0x40 MLOAD DUP1 SWAP2 SUB SWAP1 REVERT JUMPDEST PUSH1 0x0 PUSH1 0x2 DUP2 GT ISZERO PUSH2 0xA8F JUMPI PUSH2 0xA8E PUSH2 0x1D56 JUMP JUMPDEST JUMPDEST PUSH1 0x1 PUSH1 0x0 CALLER PUSH20 0xFFFFFFFFFFFFFFFFFFFFFFFFFFFFFFFFFFFFFFFF AND PUSH20 0xFFFFFFFFFFFFFFFFFFFFFFFFFFFFFFFFFFFFFFFF AND DUP2 MSTORE PUSH1 0x20 ADD SWAP1 DUP2 MSTORE PUSH1 0x20 ADD PUSH1 0x0 KECCAK256 PUSH1 0x0 ADD PUSH1 0x14 SWAP1 SLOAD SWAP1 PUSH2 0x100 EXP SWAP1 DIV PUSH1 0xFF AND PUSH1 0x2 DUP2 GT ISZERO PUSH2 0xAF1 JUMPI PUSH2 0xAF0 PUSH2 0x1D56 JUMP JUMPDEST JUMPDEST EQ PUSH2 0xB31 JUMPI PUSH1 0x40 MLOAD PUSH32 0x8C379A000000000000000000000000000000000000000000000000000000000 DUP2 MSTORE PUSH1 0x4 ADD PUSH2 0xB28 SWAP1 PUSH2 0x23DD JUMP JUMPDEST PUSH1 0x40 MLOAD DUP1 SWAP2 SUB SWAP1 REVERT JUMPDEST PUSH1 0x0 PUSH1 0x2 SLOAD PUSH8 0xFFFFFFFFFFFFFFFF DUP2 GT ISZERO PUSH2 0xB4F JUMPI PUSH2 0xB4E PUSH2 0x1A02 JUMP JUMPDEST JUMPDEST PUSH1 0x40 MLOAD SWAP1 DUP1 DUP3 MSTORE DUP1 PUSH1 0x20 MUL PUSH1 0x20 ADD DUP3 ADD PUSH1 0x40 MSTORE DUP1 ISZERO PUSH2 0xB7D JUMPI DUP2 PUSH1 0x20 ADD PUSH1 0x20 DUP3 MUL DUP1 CALLDATASIZE DUP4 CALLDATACOPY DUP1 DUP3 ADD SWAP2 POP POP SWAP1 POP JUMPDEST POP SWAP1 POP PUSH1 0x0 DUP1 JUMPDEST PUSH1 0x2 SLOAD DUP2 LT ISZERO PUSH2 0xC78 JUMPI PUSH1 0x0 DUP1 PUSH1 0x0 DUP4 DUP2 MSTORE PUSH1 0x20 ADD SWAP1 DUP2 MSTORE PUSH1 0x20 ADD PUSH1 0x0 KECCAK256 SWAP1 POP PUSH1 0x0 JUMPDEST DUP2 PUSH1 0x5 ADD DUP1 SLOAD SWAP1 POP DUP2 LT ISZERO PUSH2 0xC69 JUMPI CALLER PUSH20 0xFFFFFFFFFFFFFFFFFFFFFFFFFFFFFFFFFFFFFFFF AND DUP3 PUSH1 0x5 ADD DUP3 DUP2 SLOAD DUP2 LT PUSH2 0xBE3 JUMPI PUSH2 0xBE2 PUSH2 0x2095 JUMP JUMPDEST JUMPDEST SWAP1 PUSH1 0x0 MSTORE PUSH1 0x20 PUSH1 0x0 KECCAK256 ADD PUSH1 0x0 SWAP1 SLOAD SWAP1 PUSH2 0x100 EXP SWAP1 DIV PUSH20 0xFFFFFFFFFFFFFFFFFFFFFFFFFFFFFFFFFFFFFFFF AND PUSH20 0xFFFFFFFFFFFFFFFFFFFFFFFFFFFFFFFFFFFFFFFF AND SUB PUSH2 0xC5C JUMPI DUP3 DUP6 DUP6 DUP2 MLOAD DUP2 LT PUSH2 0xC3D JUMPI PUSH2 0xC3C PUSH2 0x2095 JUMP JUMPDEST JUMPDEST PUSH1 0x20 MUL PUSH1 0x20 ADD ADD DUP2 DUP2 MSTORE POP POP DUP4 DUP1 PUSH2 0xC54 SWAP1 PUSH2 0x23FD JUMP JUMPDEST SWAP5 POP POP PUSH2 0xC69 JUMP JUMPDEST DUP1 DUP1 PUSH1 0x1 ADD SWAP2 POP POP PUSH2 0xBA7 JUMP JUMPDEST POP POP DUP1 DUP1 PUSH1 0x1 ADD SWAP2 POP POP PUSH2 0xB84 JUMP JUMPDEST POP PUSH1 0x0 DUP2 PUSH8 0xFFFFFFFFFFFFFFFF DUP2 GT ISZERO PUSH2 0xC95 JUMPI PUSH2 0xC94 PUSH2 0x1A02 JUMP JUMPDEST JUMPDEST PUSH1 0x40 MLOAD SWAP1 DUP1 DUP3 MSTORE DUP1 PUSH1 0x20 MUL PUSH1 0x20 ADD DUP3 ADD PUSH1 0x40 MSTORE DUP1 ISZERO PUSH2 0xCC3 JUMPI DUP2 PUSH1 0x20 ADD PUSH1 0x20 DUP3 MUL DUP1 CALLDATASIZE DUP4 CALLDATACOPY DUP1 DUP3 ADD SWAP2 POP POP SWAP1 POP JUMPDEST POP SWAP1 POP PUSH1 0x0 JUMPDEST DUP3 DUP2 LT ISZERO PUSH2 0xD18 JUMPI DUP4 DUP2 DUP2 MLOAD DUP2 LT PUSH2 0xCE4 JUMPI PUSH2 0xCE3 PUSH2 0x2095 JUMP JUMPDEST JUMPDEST PUSH1 0x20 MUL PUSH1 0x20 ADD ADD MLOAD DUP3 DUP3 DUP2 MLOAD DUP2 LT PUSH2 0xCFF JUMPI PUSH2 0xCFE PUSH2 0x2095 JUMP JUMPDEST JUMPDEST PUSH1 0x20 MUL PUSH1 0x20 ADD ADD DUP2 DUP2 MSTORE POP POP DUP1 DUP1 PUSH1 0x1 ADD SWAP2 POP POP PUSH2 0xCC9 JUMP JUMPDEST POP DUP1 SWAP4 POP POP POP POP SWAP1 JUMP JUMPDEST PUSH1 0x2 SLOAD DUP2 JUMP JUMPDEST PUSH1 0x2 SLOAD DUP5 LT PUSH2 0xD6C JUMPI PUSH1 0x40 MLOAD PUSH32 0x8C379A000000000000000000000000000000000000000000000000000000000 DUP2 MSTORE PUSH1 0x4 ADD PUSH2 0xD63 SWAP1 PUSH2 0x1EF1 JUMP JUMPDEST PUSH1 0x40 MLOAD DUP1 SWAP2 SUB SWAP1 REVERT JUMPDEST PUSH1 0x0 DUP1 DUP6 DUP2 MSTORE PUSH1 0x20 ADD SWAP1 DUP2 MSTORE PUSH1 0x20 ADD PUSH1 0x0 KECCAK256 PUSH1 0x3 ADD PUSH1 0x0 SWAP1 SLOAD SWAP1 PUSH2 0x100 EXP SWAP1 DIV PUSH1 0xFF AND PUSH2 0xDCE JUMPI PUSH1 0x40 MLOAD PUSH32 0x8C379A000000000000000000000000000000000000000000000000000000000 DUP2 MSTORE PUSH1 0x4 ADD PUSH2 0xDC5 SWAP1 PUSH2 0x1FE3 JUMP JUMPDEST PUSH1 0x40 MLOAD DUP1 SWAP2 SUB SWAP1 REVERT JUMPDEST PUSH1 0x0 DUP1 PUSH1 0x0 DUP7 DUP2 MSTORE PUSH1 0x20 ADD SWAP1 DUP2 MSTORE PUSH1 0x20 ADD PUSH1 0x0 KECCAK256 SWAP1 POP DUP4 DUP2 PUSH1 0x0 ADD SWAP1 DUP2 PUSH2 0xDF5 SWAP2 SWAP1 PUSH2 0x25F1 JUMP JUMPDEST POP DUP3 DUP2 PUSH1 0x1 ADD SWAP1 DUP2 PUSH2 0xE07 SWAP2 SWAP1 PUSH2 0x25F1 JUMP JUMPDEST POP DUP2 DUP2 PUSH1 0x2 ADD DUP2 SWAP1 SSTORE POP PUSH32 0x61F1B503285F2BAF5AE0EC7BE5C9605A293C9D47BDAF9BDB36FC15C570615FE6 DUP6 DUP6 PUSH1 0x40 MLOAD PUSH2 0xE42 SWAP3 SWAP2 SWAP1 PUSH2 0x26C3 JUMP JUMPDEST PUSH1 0x40 MLOAD DUP1 SWAP2 SUB SWAP1 LOG1 POP POP POP POP POP JUMP JUMPDEST PUSH1 0x0 PUSH1 0x20 MSTORE DUP1 PUSH1 0x0 MSTORE PUSH1 0x40 PUSH1 0x0 KECCAK256 PUSH1 0x0 SWAP2 POP SWAP1 POP DUP1 PUSH1 0x0 ADD DUP1 SLOAD PUSH2 0xE74 SWAP1 PUSH2 0x1F40 JUMP JUMPDEST DUP1 PUSH1 0x1F ADD PUSH1 0x20 DUP1 SWAP2 DIV MUL PUSH1 0x20 ADD PUSH1 0x40 MLOAD SWAP1 DUP2 ADD PUSH1 0x40 MSTORE DUP1 SWAP3 SWAP2 SWAP1 DUP2 DUP2 MSTORE PUSH1 0x20 ADD DUP3 DUP1 SLOAD PUSH2 0xEA0 SWAP1 PUSH2 0x1F40 JUMP JUMPDEST DUP1 ISZERO PUSH2 0xEED JUMPI DUP1 PUSH1 0x1F LT PUSH2 0xEC2 JUMPI PUSH2 0x100 DUP1 DUP4 SLOAD DIV MUL DUP4 MSTORE SWAP2 PUSH1 0x20 ADD SWAP2 PUSH2 0xEED JUMP JUMPDEST DUP3 ADD SWAP2 SWAP1 PUSH1 0x0 MSTORE PUSH1 0x20 PUSH1 0x0 KECCAK256 SWAP1 JUMPDEST DUP2 SLOAD DUP2 MSTORE SWAP1 PUSH1 0x1 ADD SWAP1 PUSH1 0x20 ADD DUP1 DUP4 GT PUSH2 0xED0 JUMPI DUP3 SWAP1 SUB PUSH1 0x1F AND DUP3 ADD SWAP2 JUMPDEST POP POP POP POP POP SWAP1 DUP1 PUSH1 0x1 ADD DUP1 SLOAD PUSH2 0xF02 SWAP1 PUSH2 0x1F40 JUMP JUMPDEST DUP1 PUSH1 0x1F ADD PUSH1 0x20 DUP1 SWAP2 DIV MUL PUSH1 0x20 ADD PUSH1 0x40 MLOAD SWAP1 DUP2 ADD PUSH1 0x40 MSTORE DUP1 SWAP3 SWAP2 SWAP1 DUP2 DUP2 MSTORE PUSH1 0x20 ADD DUP3 DUP1 SLOAD PUSH2 0xF2E SWAP1 PUSH2 0x1F40 JUMP JUMPDEST DUP1 ISZERO PUSH2 0xF7B JUMPI DUP1 PUSH1 0x1F LT PUSH2 0xF50 JUMPI PUSH2 0x100 DUP1 DUP4 SLOAD DIV MUL DUP4 MSTORE SWAP2 PUSH1 0x20 ADD SWAP2 PUSH2 0xF7B JUMP JUMPDEST DUP3 ADD SWAP2 SWAP1 PUSH1 0x0 MSTORE PUSH1 0x20 PUSH1 0x0 KECCAK256 SWAP1 JUMPDEST DUP2 SLOAD DUP2 MSTORE SWAP1 PUSH1 0x1 ADD SWAP1 PUSH1 0x20 ADD DUP1 DUP4 GT PUSH2 0xF5E JUMPI DUP3 SWAP1 SUB PUSH1 0x1F AND DUP3 ADD SWAP2 JUMPDEST POP POP POP POP POP SWAP1 DUP1 PUSH1 0x2 ADD SLOAD SWAP1 DUP1 PUSH1 0x3 ADD PUSH1 0x0 SWAP1 SLOAD SWAP1 PUSH2 0x100 EXP SWAP1 DIV PUSH1 0xFF AND SWAP1 DUP1 PUSH1 0x4 ADD SLOAD SWAP1 POP DUP6 JUMP JUMPDEST PUSH1 0x2 SLOAD DUP2 LT PUSH2 0xFE8 JUMPI PUSH1 0x40 MLOAD PUSH32 0x8C379A000000000000000000000000000000000000000000000000000000000 DUP2 MSTORE PUSH1 0x4 ADD PUSH2 0xFDF SWAP1 PUSH2 0x1EF1 JUMP JUMPDEST PUSH1 0x40 MLOAD DUP1 SWAP2 SUB SWAP1 REVERT JUMPDEST PUSH1 0x0 DUP1 DUP3 DUP2 MSTORE PUSH1 0x20 ADD SWAP1 DUP2 MSTORE PUSH1 0x20 ADD PUSH1 0x0 KECCAK256 PUSH1 0x3 ADD PUSH1 0x0 SWAP1 SLOAD SWAP1 PUSH2 0x100 EXP SWAP1 DIV PUSH1 0xFF AND PUSH2 0x104A JUMPI PUSH1 0x40 MLOAD PUSH32 0x8C379A000000000000000000000000000000000000000000000000000000000 DUP2 MSTORE PUSH1 0x4 ADD PUSH2 0x1041 SWAP1 PUSH2 0x1FE3 JUMP JUMPDEST PUSH1 0x40 MLOAD DUP1 SWAP2 SUB SWAP1 REVERT JUMPDEST PUSH1 0x0 DUP1 PUSH1 0x0 DUP4 DUP2 MSTORE PUSH1 0x20 ADD SWAP1 DUP2 MSTORE PUSH1 0x20 ADD PUSH1 0x0 KECCAK256 PUSH1 0x3 ADD PUSH1 0x0 PUSH2 0x100 EXP DUP2 SLOAD DUP2 PUSH1 0xFF MUL NOT AND SWAP1 DUP4 ISZERO ISZERO MUL OR SWAP1 SSTORE POP PUSH32 0x39EEDA956A5B638CCE21D44FEB4E3279509FBAF8FB7776431F55F57A0CD21537 DUP2 PUSH1 0x40 MLOAD PUSH2 0x10A7 SWAP2 SWAP1 PUSH2 0x19DD JUMP JUMPDEST PUSH1 0x40 MLOAD DUP1 SWAP2 SUB SWAP1 LOG1 POP JUMP JUMPDEST PUSH1 0x1 PUSH1 0x0 DUP4 PUSH20 0xFFFFFFFFFFFFFFFFFFFFFFFFFFFFFFFFFFFFFFFF AND PUSH20 0xFFFFFFFFFFFFFFFFFFFFFFFFFFFFFFFFFFFFFFFF AND DUP2 MSTORE PUSH1 0x20 ADD SWAP1 DUP2 MSTORE PUSH1 0x20 ADD PUSH1 0x0 KECCAK256 PUSH1 0x0 ADD PUSH1 0x15 SWAP1 SLOAD SWAP1 PUSH2 0x100 EXP SWAP1 DIV PUSH1 0xFF AND ISZERO PUSH2 0x1142 JUMPI PUSH1 0x40 MLOAD PUSH32 0x8C379A000000000000000000000000000000000000000000000000000000000 DUP2 MSTORE PUSH1 0x4 ADD PUSH2 0x1139 SWAP1 PUSH2 0x273F JUMP JUMPDEST PUSH1 0x40 MLOAD DUP1 SWAP2 SUB SWAP1 REVERT JUMPDEST PUSH1 0x40 MLOAD DUP1 PUSH1 0x60 ADD PUSH1 0x40 MSTORE DUP1 DUP4 PUSH20 0xFFFFFFFFFFFFFFFFFFFFFFFFFFFFFFFFFFFFFFFF AND DUP2 MSTORE PUSH1 0x20 ADD DUP3 PUSH1 0x2 DUP2 GT ISZERO PUSH2 0x117C JUMPI PUSH2 0x117B PUSH2 0x1D56 JUMP JUMPDEST JUMPDEST DUP2 MSTORE PUSH1 0x20 ADD PUSH1 0x1 ISZERO ISZERO DUP2 MSTORE POP PUSH1 0x1 PUSH1 0x0 DUP5 PUSH20 0xFFFFFFFFFFFFFFFFFFFFFFFFFFFFFFFFFFFFFFFF AND PUSH20 0xFFFFFFFFFFFFFFFFFFFFFFFFFFFFFFFFFFFFFFFF AND DUP2 MSTORE PUSH1 0x20 ADD SWAP1 DUP2 MSTORE PUSH1 0x20 ADD PUSH1 0x0 KECCAK256 PUSH1 0x0 DUP3 ADD MLOAD DUP2 PUSH1 0x0 ADD PUSH1 0x0 PUSH2 0x100 EXP DUP2 SLOAD DUP2 PUSH20 0xFFFFFFFFFFFFFFFFFFFFFFFFFFFFFFFFFFFFFFFF MUL NOT AND SWAP1 DUP4 PUSH20 0xFFFFFFFFFFFFFFFFFFFFFFFFFFFFFFFFFFFFFFFF AND MUL OR SWAP1 SSTORE POP PUSH1 0x20 DUP3 ADD MLOAD DUP2 PUSH1 0x0 ADD PUSH1 0x14 PUSH2 0x100 EXP DUP2 SLOAD DUP2 PUSH1 0xFF MUL NOT AND SWAP1 DUP4 PUSH1 0x2 DUP2 GT ISZERO PUSH2 0x1239 JUMPI PUSH2 0x1238 PUSH2 0x1D56 JUMP JUMPDEST JUMPDEST MUL OR SWAP1 SSTORE POP PUSH1 0x40 DUP3 ADD MLOAD DUP2 PUSH1 0x0 ADD PUSH1 0x15 PUSH2 0x100 EXP DUP2 SLOAD DUP2 PUSH1 0xFF MUL NOT AND SWAP1 DUP4 ISZERO ISZERO MUL OR SWAP1 SSTORE POP SWAP1 POP POP PUSH32 0x8E18574F8A7333E6A87112742A55853A643E2F0550F4E1A3A2C3F1BB2994441D DUP3 DUP3 PUSH1 0x40 MLOAD PUSH2 0x1292 SWAP3 SWAP2 SWAP1 PUSH2 0x275F JUMP JUMPDEST PUSH1 0x40 MLOAD DUP1 SWAP2 SUB SWAP1 LOG1 POP POP JUMP JUMPDEST PUSH1 0x0 PUSH1 0x2 PUSH1 0x0 DUP2 SLOAD DUP1 SWAP3 SWAP2 SWAP1 PUSH2 0x12B3 SWAP1 PUSH2 0x23FD JUMP JUMPDEST SWAP2 SWAP1 POP SSTORE SWAP1 POP PUSH1 0x0 DUP1 PUSH1 0x0 DUP4 DUP2 MSTORE PUSH1 0x20 ADD SWAP1 DUP2 MSTORE PUSH1 0x20 ADD PUSH1 0x0 KECCAK256 SWAP1 POP DUP5 DUP2 PUSH1 0x0 ADD SWAP1 DUP2 PUSH2 0x12E0 SWAP2 SWAP1 PUSH2 0x25F1 JUMP JUMPDEST POP DUP4 DUP2 PUSH1 0x1 ADD SWAP1 DUP2 PUSH2 0x12F2 SWAP2 SWAP1 PUSH2 0x25F1 JUMP JUMPDEST POP DUP3 DUP2 PUSH1 0x2 ADD DUP2 SWAP1 SSTORE POP PUSH1 0x1 DUP2 PUSH1 0x3 ADD PUSH1 0x0 PUSH2 0x100 EXP DUP2 SLOAD DUP2 PUSH1 0xFF MUL NOT AND SWAP1 DUP4 ISZERO ISZERO MUL OR SWAP1 SSTORE POP PUSH1 0x0 DUP2 PUSH1 0x4 ADD DUP2 SWAP1 SSTORE POP PUSH32 0xC2C844C5F6C72FE99B99DE0942BA619E99957D3E8F7E614263ECFE40DE952E58 DUP3 DUP7 PUSH1 0x40 MLOAD PUSH2 0x1354 SWAP3 SWAP2 SWAP1 PUSH2 0x26C3 JUMP JUMPDEST PUSH1 0x40 MLOAD DUP1 SWAP2 SUB SWAP1 LOG1 POP POP POP POP POP JUMP JUMPDEST PUSH1 0x1 PUSH1 0x20 MSTORE DUP1 PUSH1 0x0 MSTORE PUSH1 0x40 PUSH1 0x0 KECCAK256 PUSH1 0x0 SWAP2 POP SWAP1 POP DUP1 PUSH1 0x0 ADD PUSH1 0x0 SWAP1 SLOAD SWAP1 PUSH2 0x100 EXP SWAP1 DIV PUSH20 0xFFFFFFFFFFFFFFFFFFFFFFFFFFFFFFFFFFFFFFFF AND SWAP1 DUP1 PUSH1 0x0 ADD PUSH1 0x14 SWAP1 SLOAD SWAP1 PUSH2 0x100 EXP SWAP1 DIV PUSH1 0xFF AND SWAP1 DUP1 PUSH1 0x0 ADD PUSH1 0x15 SWAP1 SLOAD SWAP1 PUSH2 0x100 EXP SWAP1 DIV PUSH1 0xFF AND SWAP1 POP DUP4 JUMP JUMPDEST PUSH1 0x60 PUSH1 0x0 PUSH1 0x2 SLOAD PUSH8 0xFFFFFFFFFFFFFFFF DUP2 GT ISZERO PUSH2 0x13E7 JUMPI PUSH2 0x13E6 PUSH2 0x1A02 JUMP JUMPDEST JUMPDEST PUSH1 0x40 MLOAD SWAP1 DUP1 DUP3 MSTORE DUP1 PUSH1 0x20 MUL PUSH1 0x20 ADD DUP3 ADD PUSH1 0x40 MSTORE DUP1 ISZERO PUSH2 0x1415 JUMPI DUP2 PUSH1 0x20 ADD PUSH1 0x20 DUP3 MUL DUP1 CALLDATASIZE DUP4 CALLDATACOPY DUP1 DUP3 ADD SWAP2 POP POP SWAP1 POP JUMPDEST POP SWAP1 POP PUSH1 0x0 DUP1 JUMPDEST PUSH1 0x2 SLOAD DUP2 LT ISZERO PUSH2 0x148A JUMPI PUSH1 0x0 DUP1 DUP3 DUP2 MSTORE PUSH1 0x20 ADD SWAP1 DUP2 MSTORE PUSH1 0x20 ADD PUSH1 0x0 KECCAK256 PUSH1 0x3 ADD PUSH1 0x0 SWAP1 SLOAD SWAP1 PUSH2 0x100 EXP SWAP1 DIV PUSH1 0xFF AND ISZERO PUSH2 0x147D JUMPI DUP1 DUP4 DUP4 DUP2 MLOAD DUP2 LT PUSH2 0x1462 JUMPI PUSH2 0x1461 PUSH2 0x2095 JUMP JUMPDEST JUMPDEST PUSH1 0x20 MUL PUSH1 0x20 ADD ADD DUP2 DUP2 MSTORE POP POP DUP2 DUP1 PUSH2 0x1479 SWAP1 PUSH2 0x23FD JUMP JUMPDEST SWAP3 POP POP JUMPDEST DUP1 DUP1 PUSH1 0x1 ADD SWAP2 POP POP PUSH2 0x141C JUMP JUMPDEST POP PUSH1 0x0 DUP2 PUSH8 0xFFFFFFFFFFFFFFFF DUP2 GT ISZERO PUSH2 0x14A7 JUMPI PUSH2 0x14A6 PUSH2 0x1A02 JUMP JUMPDEST JUMPDEST PUSH1 0x40 MLOAD SWAP1 DUP1 DUP3 MSTORE DUP1 PUSH1 0x20 MUL PUSH1 0x20 ADD DUP3 ADD PUSH1 0x40 MSTORE DUP1 ISZERO PUSH2 0x14D5 JUMPI DUP2 PUSH1 0x20 ADD PUSH1 0x20 DUP3 MUL DUP1 CALLDATASIZE DUP4 CALLDATACOPY DUP1 DUP3 ADD SWAP2 POP POP SWAP1 POP JUMPDEST POP SWAP1 POP PUSH1 0x0 JUMPDEST DUP3 DUP2 LT ISZERO PUSH2 0x152A JUMPI DUP4 DUP2 DUP2 MLOAD DUP2 LT PUSH2 0x14F6 JUMPI PUSH2 0x14F5 PUSH2 0x2095 JUMP JUMPDEST JUMPDEST PUSH1 0x20 MUL PUSH1 0x20 ADD ADD MLOAD DUP3 DUP3 DUP2 MLOAD DUP2 LT PUSH2 0x1511 JUMPI PUSH2 0x1510 PUSH2 0x2095 JUMP JUMPDEST JUMPDEST PUSH1 0x20 MUL PUSH1 0x20 ADD ADD DUP2 DUP2 MSTORE POP POP DUP1 DUP1 PUSH1 0x1 ADD SWAP2 POP POP PUSH2 0x14DB JUMP JUMPDEST POP DUP1 SWAP4 POP POP POP POP SWAP1 JUMP JUMPDEST PUSH1 0x0 DUP1 PUSH1 0x0 PUSH1 0x2 SLOAD DUP6 LT PUSH2 0x157D JUMPI PUSH1 0x40 MLOAD PUSH32 0x8C379A000000000000000000000000000000000000000000000000000000000 DUP2 MSTORE PUSH1 0x4 ADD PUSH2 0x1574 SWAP1 PUSH2 0x1EF1 JUMP JUMPDEST PUSH1 0x40 MLOAD DUP1 SWAP2 SUB SWAP1 REVERT JUMPDEST PUSH1 0x0 DUP1 DUP7 DUP2 MSTORE PUSH1 0x20 ADD SWAP1 DUP2 MSTORE PUSH1 0x20 ADD PUSH1 0x0 KECCAK256 PUSH1 0x3 ADD PUSH1 0x0 SWAP1 SLOAD SWAP1 PUSH2 0x100 EXP SWAP1 DIV PUSH1 0xFF AND PUSH2 0x15DF JUMPI PUSH1 0x40 MLOAD PUSH32 0x8C379A000000000000000000000000000000000000000000000000000000000 DUP2 MSTORE PUSH1 0x4 ADD PUSH2 0x15D6 SWAP1 PUSH2 0x1FE3 JUMP JUMPDEST PUSH1 0x40 MLOAD DUP1 SWAP2 SUB SWAP1 REVERT JUMPDEST PUSH1 0x0 DUP1 DUP7 DUP2 MSTORE PUSH1 0x20 ADD SWAP1 DUP2 MSTORE PUSH1 0x20 ADD PUSH1 0x0 KECCAK256 PUSH1 0x4 ADD SLOAD DUP5 GT ISZERO PUSH2 0x1637 JUMPI PUSH1 0x40 MLOAD PUSH32 0x8C379A000000000000000000000000000000000000000000000000000000000 DUP2 MSTORE PUSH1 0x4 ADD PUSH2 0x162E SWAP1 PUSH2 0x27D4 JUMP JUMPDEST PUSH1 0x40 MLOAD DUP1 SWAP2 SUB SWAP1 REVERT JUMPDEST PUSH1 0x0 DUP1 PUSH1 0x0 DUP8 DUP2 MSTORE PUSH1 0x20 ADD SWAP1 DUP2 MSTORE PUSH1 0x20 ADD PUSH1 0x0 KECCAK256 PUSH1 0x6 ADD PUSH1 0x0 DUP7 DUP2 MSTORE PUSH1 0x20 ADD SWAP1 DUP2 MSTORE PUSH1 0x20 ADD PUSH1 0x0 KECCAK256 SWAP1 POP DUP1 PUSH1 0x0 ADD PUSH1 0x0 SWAP1 SLOAD SWAP1 PUSH2 0x100 EXP SWAP1 DIV PUSH1 0xFF AND DUP2 PUSH1 0x0 ADD PUSH1 0x1 SWAP1 SLOAD SWAP1 PUSH2 0x100 EXP SWAP1 DIV PUSH1 0xFF AND DUP3 PUSH1 0x0 ADD PUSH1 0x2 SWAP1 SLOAD SWAP1 PUSH2 0x100 EXP SWAP1 DIV PUSH1 0xFF AND SWAP4 POP SWAP4 POP SWAP4 POP POP SWAP3 POP SWAP3 POP SWAP3 JUMP JUMPDEST PUSH1 0x3 PUSH1 0x0 SWAP1 SLOAD SWAP1 PUSH2 0x100 EXP SWAP1 DIV PUSH20 0xFFFFFFFFFFFFFFFFFFFFFFFFFFFFFFFFFFFFFFFF AND DUP2 JUMP JUMPDEST PUSH1 0x0 PUSH1 0x40 MLOAD SWAP1 POP SWAP1 JUMP JUMPDEST PUSH1 0x0 DUP1 REVERT JUMPDEST PUSH1 0x0 DUP1 REVERT JUMPDEST PUSH1 0x0 DUP2 SWAP1 POP SWAP2 SWAP1 POP JUMP JUMPDEST PUSH2 0x16F2 DUP2 PUSH2 0x16DF JUMP JUMPDEST DUP2 EQ PUSH2 0x16FD JUMPI PUSH1 0x0 DUP1 REVERT JUMPDEST POP JUMP JUMPDEST PUSH1 0x0 DUP2 CALLDATALOAD SWAP1 POP PUSH2 0x170F DUP2 PUSH2 0x16E9 JUMP JUMPDEST SWAP3 SWAP2 POP POP JUMP JUMPDEST PUSH1 0x0 PUSH1 0x20 DUP3 DUP5 SUB SLT ISZERO PUSH2 0x172B JUMPI PUSH2 0x172A PUSH2 0x16D5 JUMP JUMPDEST JUMPDEST PUSH1 0x0 PUSH2 0x1739 DUP5 DUP3 DUP6 ADD PUSH2 0x1700 JUMP JUMPDEST SWAP2 POP POP SWAP3 SWAP2 POP POP JUMP JUMPDEST PUSH1 0x0 DUP2 MLOAD SWAP1 POP SWAP2 SWAP1 POP JUMP JUMPDEST PUSH1 0x0 DUP3 DUP3 MSTORE PUSH1 0x20 DUP3 ADD SWAP1 POP SWAP3 SWAP2 POP POP JUMP JUMPDEST PUSH1 0x0 JUMPDEST DUP4 DUP2 LT ISZERO PUSH2 0x177C JUMPI DUP1 DUP3 ADD MLOAD DUP2 DUP5 ADD MSTORE PUSH1 0x20 DUP2 ADD SWAP1 POP PUSH2 0x1761 JUMP JUMPDEST PUSH1 0x0 DUP5 DUP5 ADD MSTORE POP POP POP POP JUMP JUMPDEST PUSH1 0x0 PUSH1 0x1F NOT PUSH1 0x1F DUP4 ADD AND SWAP1 POP SWAP2 SWAP1 POP JUMP JUMPDEST PUSH1 0x0 PUSH2 0x17A4 DUP3 PUSH2 0x1742 JUMP JUMPDEST PUSH2 0x17AE DUP2 DUP6 PUSH2 0x174D JUMP JUMPDEST SWAP4 POP PUSH2 0x17BE DUP2 DUP6 PUSH1 0x20 DUP7 ADD PUSH2 0x175E JUMP JUMPDEST PUSH2 0x17C7 DUP2 PUSH2 0x1788 JUMP JUMPDEST DUP5 ADD SWAP2 POP POP SWAP3 SWAP2 POP POP JUMP JUMPDEST PUSH2 0x17DB DUP2 PUSH2 0x16DF JUMP JUMPDEST DUP3 MSTORE POP POP JUMP JUMPDEST PUSH1 0x0 DUP2 ISZERO ISZERO SWAP1 POP SWAP2 SWAP1 POP JUMP JUMPDEST PUSH2 0x17F6 DUP2 PUSH2 0x17E1 JUMP JUMPDEST DUP3 MSTORE POP POP JUMP JUMPDEST PUSH1 0x0 PUSH1 0xA0 DUP3 ADD SWAP1 POP DUP2 DUP2 SUB PUSH1 0x0 DUP4 ADD MSTORE PUSH2 0x1816 DUP2 DUP9 PUSH2 0x1799 JUMP JUMPDEST SWAP1 POP DUP2 DUP2 SUB PUSH1 0x20 DUP4 ADD MSTORE PUSH2 0x182A DUP2 DUP8 PUSH2 0x1799 JUMP JUMPDEST SWAP1 POP PUSH2 0x1839 PUSH1 0x40 DUP4 ADD DUP7 PUSH2 0x17D2 JUMP JUMPDEST PUSH2 0x1846 PUSH1 0x60 DUP4 ADD DUP6 PUSH2 0x17ED JUMP JUMPDEST PUSH2 0x1853 PUSH1 0x80 DUP4 ADD DUP5 PUSH2 0x17D2 JUMP JUMPDEST SWAP7 SWAP6 POP POP POP POP POP POP JUMP JUMPDEST PUSH1 0x0 PUSH1 0xFF DUP3 AND SWAP1 POP SWAP2 SWAP1 POP JUMP JUMPDEST PUSH2 0x1873 DUP2 PUSH2 0x185D JUMP JUMPDEST DUP2 EQ PUSH2 0x187E JUMPI PUSH1 0x0 DUP1 REVERT JUMPDEST POP JUMP JUMPDEST PUSH1 0x0 DUP2 CALLDATALOAD SWAP1 POP PUSH2 0x1890 DUP2 PUSH2 0x186A JUMP JUMPDEST SWAP3 SWAP2 POP POP JUMP JUMPDEST PUSH1 0x0 DUP1 PUSH1 0x0 DUP1 PUSH1 0x80 DUP6 DUP8 SUB SLT ISZERO PUSH2 0x18B0 JUMPI PUSH2 0x18AF PUSH2 0x16D5 JUMP JUMPDEST JUMPDEST PUSH1 0x0 PUSH2 0x18BE DUP8 DUP3 DUP9 ADD PUSH2 0x1700 JUMP JUMPDEST SWAP5 POP POP PUSH1 0x20 PUSH2 0x18CF DUP8 DUP3 DUP9 ADD PUSH2 0x1881 JUMP JUMPDEST SWAP4 POP POP PUSH1 0x40 PUSH2 0x18E0 DUP8 DUP3 DUP9 ADD PUSH2 0x1881 JUMP JUMPDEST SWAP3 POP POP PUSH1 0x60 PUSH2 0x18F1 DUP8 DUP3 DUP9 ADD PUSH2 0x1881 JUMP JUMPDEST SWAP2 POP POP SWAP3 SWAP6 SWAP2 SWAP5 POP SWAP3 POP JUMP JUMPDEST PUSH1 0x0 DUP2 MLOAD SWAP1 POP SWAP2 SWAP1 POP JUMP JUMPDEST PUSH1 0x0 DUP3 DUP3 MSTORE PUSH1 0x20 DUP3 ADD SWAP1 POP SWAP3 SWAP2 POP POP JUMP JUMPDEST PUSH1 0x0 DUP2 SWAP1 POP PUSH1 0x20 DUP3 ADD SWAP1 POP SWAP2 SWAP1 POP JUMP JUMPDEST PUSH2 0x1932 DUP2 PUSH2 0x16DF JUMP JUMPDEST DUP3 MSTORE POP POP JUMP JUMPDEST PUSH1 0x0 PUSH2 0x1944 DUP4 DUP4 PUSH2 0x1929 JUMP JUMPDEST PUSH1 0x20 DUP4 ADD SWAP1 POP SWAP3 SWAP2 POP POP JUMP JUMPDEST PUSH1 0x0 PUSH1 0x20 DUP3 ADD SWAP1 POP SWAP2 SWAP1 POP JUMP JUMPDEST PUSH1 0x0 PUSH2 0x1968 DUP3 PUSH2 0x18FD JUMP JUMPDEST PUSH2 0x1972 DUP2 DUP6 PUSH2 0x1908 JUMP JUMPDEST SWAP4 POP PUSH2 0x197D DUP4 PUSH2 0x1919 JUMP JUMPDEST DUP1 PUSH1 0x0 JUMPDEST DUP4 DUP2 LT ISZERO PUSH2 0x19AE JUMPI DUP2 MLOAD PUSH2 0x1995 DUP9 DUP3 PUSH2 0x1938 JUMP JUMPDEST SWAP8 POP PUSH2 0x19A0 DUP4 PUSH2 0x1950 JUMP JUMPDEST SWAP3 POP POP PUSH1 0x1 DUP2 ADD SWAP1 POP PUSH2 0x1981 JUMP JUMPDEST POP DUP6 SWAP4 POP POP POP POP SWAP3 SWAP2 POP POP JUMP JUMPDEST PUSH1 0x0 PUSH1 0x20 DUP3 ADD SWAP1 POP DUP2 DUP2 SUB PUSH1 0x0 DUP4 ADD MSTORE PUSH2 0x19D5 DUP2 DUP5 PUSH2 0x195D JUMP JUMPDEST SWAP1 POP SWAP3 SWAP2 POP POP JUMP JUMPDEST PUSH1 0x0 PUSH1 0x20 DUP3 ADD SWAP1 POP PUSH2 0x19F2 PUSH1 0x0 DUP4 ADD DUP5 PUSH2 0x17D2 JUMP JUMPDEST SWAP3 SWAP2 POP POP JUMP JUMPDEST PUSH1 0x0 DUP1 REVERT JUMPDEST PUSH1 0x0 DUP1 REVERT JUMPDEST PUSH32 0x4E487B7100000000000000000000000000000000000000000000000000000000 PUSH1 0x0 MSTORE PUSH1 0x41 PUSH1 0x4 MSTORE PUSH1 0x24 PUSH1 0x0 REVERT JUMPDEST PUSH2 0x1A3A DUP3 PUSH2 0x1788 JUMP JUMPDEST DUP2 ADD DUP2 DUP2 LT PUSH8 0xFFFFFFFFFFFFFFFF DUP3 GT OR ISZERO PUSH2 0x1A59 JUMPI PUSH2 0x1A58 PUSH2 0x1A02 JUMP JUMPDEST JUMPDEST DUP1 PUSH1 0x40 MSTORE POP POP POP JUMP JUMPDEST PUSH1 0x0 PUSH2 0x1A6C PUSH2 0x16CB JUMP JUMPDEST SWAP1 POP PUSH2 0x1A78 DUP3 DUP3 PUSH2 0x1A31 JUMP JUMPDEST SWAP2 SWAP1 POP JUMP JUMPDEST PUSH1 0x0 PUSH8 0xFFFFFFFFFFFFFFFF DUP3 GT ISZERO PUSH2 0x1A98 JUMPI PUSH2 0x1A97 PUSH2 0x1A02 JUMP JUMPDEST JUMPDEST PUSH2 0x1AA1 DUP3 PUSH2 0x1788 JUMP JUMPDEST SWAP1 POP PUSH1 0x20 DUP2 ADD SWAP1 POP SWAP2 SWAP1 POP JUMP JUMPDEST DUP3 DUP2 DUP4 CALLDATACOPY PUSH1 0x0 DUP4 DUP4 ADD MSTORE POP POP POP JUMP JUMPDEST PUSH1 0x0 PUSH2 0x1AD0 PUSH2 0x1ACB DUP5 PUSH2 0x1A7D JUMP JUMPDEST PUSH2 0x1A62 JUMP JUMPDEST SWAP1 POP DUP3 DUP2 MSTORE PUSH1 0x20 DUP2 ADD DUP5 DUP5 DUP5 ADD GT ISZERO PUSH2 0x1AEC JUMPI PUSH2 0x1AEB PUSH2 0x19FD JUMP JUMPDEST JUMPDEST PUSH2 0x1AF7 DUP5 DUP3 DUP6 PUSH2 0x1AAE JUMP JUMPDEST POP SWAP4 SWAP3 POP POP POP JUMP JUMPDEST PUSH1 0x0 DUP3 PUSH1 0x1F DUP4 ADD SLT PUSH2 0x1B14 JUMPI PUSH2 0x1B13 PUSH2 0x19F8 JUMP JUMPDEST JUMPDEST DUP2 CALLDATALOAD PUSH2 0x1B24 DUP5 DUP3 PUSH1 0x20 DUP7 ADD PUSH2 0x1ABD JUMP JUMPDEST SWAP2 POP POP SWAP3 SWAP2 POP POP JUMP JUMPDEST PUSH1 0x0 DUP1 PUSH1 0x0 DUP1 PUSH1 0x80 DUP6 DUP8 SUB SLT ISZERO PUSH2 0x1B47 JUMPI PUSH2 0x1B46 PUSH2 0x16D5 JUMP JUMPDEST JUMPDEST PUSH1 0x0 PUSH2 0x1B55 DUP8 DUP3 DUP9 ADD PUSH2 0x1700 JUMP JUMPDEST SWAP5 POP POP PUSH1 0x20 DUP6 ADD CALLDATALOAD PUSH8 0xFFFFFFFFFFFFFFFF DUP2 GT ISZERO PUSH2 0x1B76 JUMPI PUSH2 0x1B75 PUSH2 0x16DA JUMP JUMPDEST JUMPDEST PUSH2 0x1B82 DUP8 DUP3 DUP9 ADD PUSH2 0x1AFF JUMP JUMPDEST SWAP4 POP POP PUSH1 0x40 DUP6 ADD CALLDATALOAD PUSH8 0xFFFFFFFFFFFFFFFF DUP2 GT ISZERO PUSH2 0x1BA3 JUMPI PUSH2 0x1BA2 PUSH2 0x16DA JUMP JUMPDEST JUMPDEST PUSH2 0x1BAF DUP8 DUP3 DUP9 ADD PUSH2 0x1AFF JUMP JUMPDEST SWAP3 POP POP PUSH1 0x60 PUSH2 0x1BC0 DUP8 DUP3 DUP9 ADD PUSH2 0x1700 JUMP JUMPDEST SWAP2 POP POP SWAP3 SWAP6 SWAP2 SWAP5 POP SWAP3 POP JUMP JUMPDEST PUSH1 0x0 PUSH20 0xFFFFFFFFFFFFFFFFFFFFFFFFFFFFFFFFFFFFFFFF DUP3 AND SWAP1 POP SWAP2 SWAP1 POP JUMP JUMPDEST PUSH1 0x0 PUSH2 0x1BF7 DUP3 PUSH2 0x1BCC JUMP JUMPDEST SWAP1 POP SWAP2 SWAP1 POP JUMP JUMPDEST PUSH2 0x1C07 DUP2 PUSH2 0x1BEC JUMP JUMPDEST DUP2 EQ PUSH2 0x1C12 JUMPI PUSH1 0x0 DUP1 REVERT JUMPDEST POP JUMP JUMPDEST PUSH1 0x0 DUP2 CALLDATALOAD SWAP1 POP PUSH2 0x1C24 DUP2 PUSH2 0x1BFE JUMP JUMPDEST SWAP3 SWAP2 POP POP JUMP JUMPDEST PUSH1 0x3 DUP2 LT PUSH2 0x1C37 JUMPI PUSH1 0x0 DUP1 REVERT JUMPDEST POP JUMP JUMPDEST PUSH1 0x0 DUP2 CALLDATALOAD SWAP1 POP PUSH2 0x1C49 DUP2 PUSH2 0x1C2A JUMP JUMPDEST SWAP3 SWAP2 POP POP JUMP JUMPDEST PUSH1 0x0 DUP1 PUSH1 0x40 DUP4 DUP6 SUB SLT ISZERO PUSH2 0x1C66 JUMPI PUSH2 0x1C65 PUSH2 0x16D5 JUMP JUMPDEST JUMPDEST PUSH1 0x0 PUSH2 0x1C74 DUP6 DUP3 DUP7 ADD PUSH2 0x1C15 JUMP JUMPDEST SWAP3 POP POP PUSH1 0x20 PUSH2 0x1C85 DUP6 DUP3 DUP7 ADD PUSH2 0x1C3A JUMP JUMPDEST SWAP2 POP POP SWAP3 POP SWAP3 SWAP1 POP JUMP JUMPDEST PUSH1 0x0 DUP1 PUSH1 0x0 PUSH1 0x60 DUP5 DUP7 SUB SLT ISZERO PUSH2 0x1CA8 JUMPI PUSH2 0x1CA7 PUSH2 0x16D5 JUMP JUMPDEST JUMPDEST PUSH1 0x0 DUP5 ADD CALLDATALOAD PUSH8 0xFFFFFFFFFFFFFFFF DUP2 GT ISZERO PUSH2 0x1CC6 JUMPI PUSH2 0x1CC5 PUSH2 0x16DA JUMP JUMPDEST JUMPDEST PUSH2 0x1CD2 DUP7 DUP3 DUP8 ADD PUSH2 0x1AFF JUMP JUMPDEST SWAP4 POP POP PUSH1 0x20 DUP5 ADD CALLDATALOAD PUSH8 0xFFFFFFFFFFFFFFFF DUP2 GT ISZERO PUSH2 0x1CF3 JUMPI PUSH2 0x1CF2 PUSH2 0x16DA JUMP JUMPDEST JUMPDEST PUSH2 0x1CFF DUP7 DUP3 DUP8 ADD PUSH2 0x1AFF JUMP JUMPDEST SWAP3 POP POP PUSH1 0x40 PUSH2 0x1D10 DUP7 DUP3 DUP8 ADD PUSH2 0x1700 JUMP JUMPDEST SWAP2 POP POP SWAP3 POP SWAP3 POP SWAP3 JUMP JUMPDEST PUSH1 0x0 PUSH1 0x20 DUP3 DUP5 SUB SLT ISZERO PUSH2 0x1D30 JUMPI PUSH2 0x1D2F PUSH2 0x16D5 JUMP JUMPDEST JUMPDEST PUSH1 0x0 PUSH2 0x1D3E DUP5 DUP3 DUP6 ADD PUSH2 0x1C15 JUMP JUMPDEST SWAP2 POP POP SWAP3 SWAP2 POP POP JUMP JUMPDEST PUSH2 0x1D50 DUP2 PUSH2 0x1BEC JUMP JUMPDEST DUP3 MSTORE POP POP JUMP JUMPDEST PUSH32 0x4E487B7100000000000000000000000000000000000000000000000000000000 PUSH1 0x0 MSTORE PUSH1 0x21 PUSH1 0x4 MSTORE PUSH1 0x24 PUSH1 0x0 REVERT JUMPDEST PUSH1 0x3 DUP2 LT PUSH2 0x1D96 JUMPI PUSH2 0x1D95 PUSH2 0x1D56 JUMP JUMPDEST JUMPDEST POP JUMP JUMPDEST PUSH1 0x0 DUP2 SWAP1 POP PUSH2 0x1DA7 DUP3 PUSH2 0x1D85 JUMP JUMPDEST SWAP2 SWAP1 POP JUMP JUMPDEST PUSH1 0x0 PUSH2 0x1DB7 DUP3 PUSH2 0x1D99 JUMP JUMPDEST SWAP1 POP SWAP2 SWAP1 POP JUMP JUMPDEST PUSH2 0x1DC7 DUP2 PUSH2 0x1DAC JUMP JUMPDEST DUP3 MSTORE POP POP JUMP JUMPDEST PUSH1 0x0 PUSH1 0x60 DUP3 ADD SWAP1 POP PUSH2 0x1DE2 PUSH1 0x0 DUP4 ADD DUP7 PUSH2 0x1D47 JUMP JUMPDEST PUSH2 0x1DEF PUSH1 0x20 DUP4 ADD DUP6 PUSH2 0x1DBE JUMP JUMPDEST PUSH2 0x1DFC PUSH1 0x40 DUP4 ADD DUP5 PUSH2 0x17ED JUMP JUMPDEST SWAP5 SWAP4 POP POP POP POP JUMP JUMPDEST PUSH1 0x0 DUP1 PUSH1 0x40 DUP4 DUP6 SUB SLT ISZERO PUSH2 0x1E1B JUMPI PUSH2 0x1E1A PUSH2 0x16D5 JUMP JUMPDEST JUMPDEST PUSH1 0x0 PUSH2 0x1E29 DUP6 DUP3 DUP7 ADD PUSH2 0x1700 JUMP JUMPDEST SWAP3 POP POP PUSH1 0x20 PUSH2 0x1E3A DUP6 DUP3 DUP7 ADD PUSH2 0x1700 JUMP JUMPDEST SWAP2 POP POP SWAP3 POP SWAP3 SWAP1 POP JUMP JUMPDEST PUSH2 0x1E4D DUP2 PUSH2 0x185D JUMP JUMPDEST DUP3 MSTORE POP POP JUMP JUMPDEST PUSH1 0x0 PUSH1 0x60 DUP3 ADD SWAP1 POP PUSH2 0x1E68 PUSH1 0x0 DUP4 ADD DUP7 PUSH2 0x1E44 JUMP JUMPDEST PUSH2 0x1E75 PUSH1 0x20 DUP4 ADD DUP6 PUSH2 0x1E44 JUMP JUMPDEST PUSH2 0x1E82 PUSH1 0x40 DUP4 ADD DUP5 PUSH2 0x1E44 JUMP JUMPDEST SWAP5 SWAP4 POP POP POP POP JUMP JUMPDEST PUSH1 0x0 PUSH1 0x20 DUP3 ADD SWAP1 POP PUSH2 0x1E9F PUSH1 0x0 DUP4 ADD DUP5 PUSH2 0x1D47 JUMP JUMPDEST SWAP3 SWAP2 POP POP JUMP JUMPDEST PUSH32 0x496E76616C696420636F75727365204944000000000000000000000000000000 PUSH1 0x0 DUP3 ADD MSTORE POP JUMP JUMPDEST PUSH1 0x0 PUSH2 0x1EDB PUSH1 0x11 DUP4 PUSH2 0x174D JUMP JUMPDEST SWAP2 POP PUSH2 0x1EE6 DUP3 PUSH2 0x1EA5 JUMP JUMPDEST PUSH1 0x20 DUP3 ADD SWAP1 POP SWAP2 SWAP1 POP JUMP JUMPDEST PUSH1 0x0 PUSH1 0x20 DUP3 ADD SWAP1 POP DUP2 DUP2 SUB PUSH1 0x0 DUP4 ADD MSTORE PUSH2 0x1F0A DUP2 PUSH2 0x1ECE JUMP JUMPDEST SWAP1 POP SWAP2 SWAP1 POP JUMP JUMPDEST PUSH32 0x4E487B7100000000000000000000000000000000000000000000000000000000 PUSH1 0x0 MSTORE PUSH1 0x22 PUSH1 0x4 MSTORE PUSH1 0x24 PUSH1 0x0 REVERT JUMPDEST PUSH1 0x0 PUSH1 0x2 DUP3 DIV SWAP1 POP PUSH1 0x1 DUP3 AND DUP1 PUSH2 0x1F58 JUMPI PUSH1 0x7F DUP3 AND SWAP2 POP JUMPDEST PUSH1 0x20 DUP3 LT DUP2 SUB PUSH2 0x1F6B JUMPI PUSH2 0x1F6A PUSH2 0x1F11 JUMP JUMPDEST JUMPDEST POP SWAP2 SWAP1 POP JUMP JUMPDEST PUSH32 0x436F7572736520646F6573206E6F74206578697374206F722068617320626565 PUSH1 0x0 DUP3 ADD MSTORE PUSH32 0x6E2064656C657465640000000000000000000000000000000000000000000000 PUSH1 0x20 DUP3 ADD MSTORE POP JUMP JUMPDEST PUSH1 0x0 PUSH2 0x1FCD PUSH1 0x29 DUP4 PUSH2 0x174D JUMP JUMPDEST SWAP2 POP PUSH2 0x1FD8 DUP3 PUSH2 0x1F71 JUMP JUMPDEST PUSH1 0x40 DUP3 ADD SWAP1 POP SWAP2 SWAP1 POP JUMP JUMPDEST PUSH1 0x0 PUSH1 0x20 DUP3 ADD SWAP1 POP DUP2 DUP2 SUB PUSH1 0x0 DUP4 ADD MSTORE PUSH2 0x1FFC DUP2 PUSH2 0x1FC0 JUMP JUMPDEST SWAP1 POP SWAP2 SWAP1 POP JUMP JUMPDEST PUSH32 0x4F6E6C792073747564656E74732063616E20726567697374657220696E20636F PUSH1 0x0 DUP3 ADD MSTORE PUSH32 0x7572736573000000000000000000000000000000000000000000000000000000 PUSH1 0x20 DUP3 ADD MSTORE POP JUMP JUMPDEST PUSH1 0x0 PUSH2 0x205F PUSH1 0x25 DUP4 PUSH2 0x174D JUMP JUMPDEST SWAP2 POP PUSH2 0x206A DUP3 PUSH2 0x2003 JUMP JUMPDEST PUSH1 0x40 DUP3 ADD SWAP1 POP SWAP2 SWAP1 POP JUMP JUMPDEST PUSH1 0x0 PUSH1 0x20 DUP3 ADD SWAP1 POP DUP2 DUP2 SUB PUSH1 0x0 DUP4 ADD MSTORE PUSH2 0x208E DUP2 PUSH2 0x2052 JUMP JUMPDEST SWAP1 POP SWAP2 SWAP1 POP JUMP JUMPDEST PUSH32 0x4E487B7100000000000000000000000000000000000000000000000000000000 PUSH1 0x0 MSTORE PUSH1 0x32 PUSH1 0x4 MSTORE PUSH1 0x24 PUSH1 0x0 REVERT JUMPDEST PUSH32 0x53747564656E7420616C7265616479207265676973746572656420696E207468 PUSH1 0x0 DUP3 ADD MSTORE PUSH32 0x6520636F75727365000000000000000000000000000000000000000000000000 PUSH1 0x20 DUP3 ADD MSTORE POP JUMP JUMPDEST PUSH1 0x0 PUSH2 0x2120 PUSH1 0x28 DUP4 PUSH2 0x174D JUMP JUMPDEST SWAP2 POP PUSH2 0x212B DUP3 PUSH2 0x20C4 JUMP JUMPDEST PUSH1 0x40 DUP3 ADD SWAP1 POP SWAP2 SWAP1 POP JUMP JUMPDEST PUSH1 0x0 PUSH1 0x20 DUP3 ADD SWAP1 POP DUP2 DUP2 SUB PUSH1 0x0 DUP4 ADD MSTORE PUSH2 0x214F DUP2 PUSH2 0x2113 JUMP JUMPDEST SWAP1 POP SWAP2 SWAP1 POP JUMP JUMPDEST PUSH1 0x0 PUSH1 0x40 DUP3 ADD SWAP1 POP PUSH2 0x216B PUSH1 0x0 DUP4 ADD DUP6 PUSH2 0x17D2 JUMP JUMPDEST PUSH2 0x2178 PUSH1 0x20 DUP4 ADD DUP5 PUSH2 0x1D47 JUMP JUMPDEST SWAP4 SWAP3 POP POP POP JUMP JUMPDEST PUSH32 0x496E76616C696420646179000000000000000000000000000000000000000000 PUSH1 0x0 DUP3 ADD MSTORE POP JUMP JUMPDEST PUSH1 0x0 PUSH2 0x21B5 PUSH1 0xB DUP4 PUSH2 0x174D JUMP JUMPDEST SWAP2 POP PUSH2 0x21C0 DUP3 PUSH2 0x217F JUMP JUMPDEST PUSH1 0x20 DUP3 ADD SWAP1 POP SWAP2 SWAP1 POP JUMP JUMPDEST PUSH1 0x0 PUSH1 0x20 DUP3 ADD SWAP1 POP DUP2 DUP2 SUB PUSH1 0x0 DUP4 ADD MSTORE PUSH2 0x21E4 DUP2 PUSH2 0x21A8 JUMP JUMPDEST SWAP1 POP SWAP2 SWAP1 POP JUMP JUMPDEST PUSH32 0x496E76616C6964207363686564756C6500000000000000000000000000000000 PUSH1 0x0 DUP3 ADD MSTORE POP JUMP JUMPDEST PUSH1 0x0 PUSH2 0x2221 PUSH1 0x10 DUP4 PUSH2 0x174D JUMP JUMPDEST SWAP2 POP PUSH2 0x222C DUP3 PUSH2 0x21EB JUMP JUMPDEST PUSH1 0x20 DUP3 ADD SWAP1 POP SWAP2 SWAP1 POP JUMP JUMPDEST PUSH1 0x0 PUSH1 0x20 DUP3 ADD SWAP1 POP DUP2 DUP2 SUB PUSH1 0x0 DUP4 ADD MSTORE PUSH2 0x2250 DUP2 PUSH2 0x2214 JUMP JUMPDEST SWAP1 POP SWAP2 SWAP1 POP JUMP JUMPDEST PUSH32 0x4E487B7100000000000000000000000000000000000000000000000000000000 PUSH1 0x0 MSTORE PUSH1 0x11 PUSH1 0x4 MSTORE PUSH1 0x24 PUSH1 0x0 REVERT JUMPDEST PUSH1 0x0 PUSH2 0x2291 DUP3 PUSH2 0x16DF JUMP JUMPDEST SWAP2 POP PUSH2 0x229C DUP4 PUSH2 0x16DF JUMP JUMPDEST SWAP3 POP DUP3 DUP3 ADD SWAP1 POP DUP1 DUP3 GT ISZERO PUSH2 0x22B4 JUMPI PUSH2 0x22B3 PUSH2 0x2257 JUMP JUMPDEST JUMPDEST SWAP3 SWAP2 POP POP JUMP JUMPDEST PUSH1 0x0 PUSH1 0x80 DUP3 ADD SWAP1 POP PUSH2 0x22CF PUSH1 0x0 DUP4 ADD DUP8 PUSH2 0x17D2 JUMP JUMPDEST PUSH2 0x22DC PUSH1 0x20 DUP4 ADD DUP7 PUSH2 0x1E44 JUMP JUMPDEST PUSH2 0x22E9 PUSH1 0x40 DUP4 ADD DUP6 PUSH2 0x1E44 JUMP JUMPDEST PUSH2 0x22F6 PUSH1 0x60 DUP4 ADD DUP5 PUSH2 0x1E44 JUMP JUMPDEST SWAP6 SWAP5 POP POP POP POP POP JUMP JUMPDEST PUSH32 0x55736572206E6F74207265676973746572656400000000000000000000000000 PUSH1 0x0 DUP3 ADD MSTORE POP JUMP JUMPDEST PUSH1 0x0 PUSH2 0x2335 PUSH1 0x13 DUP4 PUSH2 0x174D JUMP JUMPDEST SWAP2 POP PUSH2 0x2340 DUP3 PUSH2 0x22FF JUMP JUMPDEST PUSH1 0x20 DUP3 ADD SWAP1 POP SWAP2 SWAP1 POP JUMP JUMPDEST PUSH1 0x0 PUSH1 0x20 DUP3 ADD SWAP1 POP DUP2 DUP2 SUB PUSH1 0x0 DUP4 ADD MSTORE PUSH2 0x2364 DUP2 PUSH2 0x2328 JUMP JUMPDEST SWAP1 POP SWAP2 SWAP1 POP JUMP JUMPDEST PUSH32 0x4F6E6C792073747564656E74732063616E206861766520656E726F6C6C656420 PUSH1 0x0 DUP3 ADD MSTORE PUSH32 0x636F757273657300000000000000000000000000000000000000000000000000 PUSH1 0x20 DUP3 ADD MSTORE POP JUMP JUMPDEST PUSH1 0x0 PUSH2 0x23C7 PUSH1 0x27 DUP4 PUSH2 0x174D JUMP JUMPDEST SWAP2 POP PUSH2 0x23D2 DUP3 PUSH2 0x236B JUMP JUMPDEST PUSH1 0x40 DUP3 ADD SWAP1 POP SWAP2 SWAP1 POP JUMP JUMPDEST PUSH1 0x0 PUSH1 0x20 DUP3 ADD SWAP1 POP DUP2 DUP2 SUB PUSH1 0x0 DUP4 ADD MSTORE PUSH2 0x23F6 DUP2 PUSH2 0x23BA JUMP JUMPDEST SWAP1 POP SWAP2 SWAP1 POP JUMP JUMPDEST PUSH1 0x0 PUSH2 0x2408 DUP3 PUSH2 0x16DF JUMP JUMPDEST SWAP2 POP PUSH32 0xFFFFFFFFFFFFFFFFFFFFFFFFFFFFFFFFFFFFFFFFFFFFFFFFFFFFFFFFFFFFFFFF DUP3 SUB PUSH2 0x243A JUMPI PUSH2 0x2439 PUSH2 0x2257 JUMP JUMPDEST JUMPDEST PUSH1 0x1 DUP3 ADD SWAP1 POP SWAP2 SWAP1 POP JUMP JUMPDEST PUSH1 0x0 DUP2 SWAP1 POP DUP2 PUSH1 0x0 MSTORE PUSH1 0x20 PUSH1 0x0 KECCAK256 SWAP1 POP SWAP2 SWAP1 POP JUMP JUMPDEST PUSH1 0x0 PUSH1 0x20 PUSH1 0x1F DUP4 ADD DIV SWAP1 POP SWAP2 SWAP1 POP JUMP JUMPDEST PUSH1 0x0 DUP3 DUP3 SHL SWAP1 POP SWAP3 SWAP2 POP POP JUMP JUMPDEST PUSH1 0x0 PUSH1 0x8 DUP4 MUL PUSH2 0x24A7 PUSH32 0xFFFFFFFFFFFFFFFFFFFFFFFFFFFFFFFFFFFFFFFFFFFFFFFFFFFFFFFFFFFFFFFF DUP3 PUSH2 0x246A JUMP JUMPDEST PUSH2 0x24B1 DUP7 DUP4 PUSH2 0x246A JUMP JUMPDEST SWAP6 POP DUP1 NOT DUP5 AND SWAP4 POP DUP1 DUP7 AND DUP5 OR SWAP3 POP POP POP SWAP4 SWAP3 POP POP POP JUMP JUMPDEST PUSH1 0x0 DUP2 SWAP1 POP SWAP2 SWAP1 POP JUMP JUMPDEST PUSH1 0x0 PUSH2 0x24EE PUSH2 0x24E9 PUSH2 0x24E4 DUP5 PUSH2 0x16DF JUMP JUMPDEST PUSH2 0x24C9 JUMP JUMPDEST PUSH2 0x16DF JUMP JUMPDEST SWAP1 POP SWAP2 SWAP1 POP JUMP JUMPDEST PUSH1 0x0 DUP2 SWAP1 POP SWAP2 SWAP1 POP JUMP JUMPDEST PUSH2 0x2508 DUP4 PUSH2 0x24D3 JUMP JUMPDEST PUSH2 0x251C PUSH2 0x2514 DUP3 PUSH2 0x24F5 JUMP JUMPDEST DUP5 DUP5 SLOAD PUSH2 0x2477 JUMP JUMPDEST DUP3 SSTORE POP POP POP POP JUMP JUMPDEST PUSH1 0x0 SWAP1 JUMP JUMPDEST PUSH2 0x2531 PUSH2 0x2524 JUMP JUMPDEST PUSH2 0x253C DUP2 DUP5 DUP5 PUSH2 0x24FF JUMP JUMPDEST POP POP POP JUMP JUMPDEST JUMPDEST DUP2 DUP2 LT ISZERO PUSH2 0x2560 JUMPI PUSH2 0x2555 PUSH1 0x0 DUP3 PUSH2 0x2529 JUMP JUMPDEST PUSH1 0x1 DUP2 ADD SWAP1 POP PUSH2 0x2542 JUMP JUMPDEST POP POP JUMP JUMPDEST PUSH1 0x1F DUP3 GT ISZERO PUSH2 0x25A5 JUMPI PUSH2 0x2576 DUP2 PUSH2 0x2445 JUMP JUMPDEST PUSH2 0x257F DUP5 PUSH2 0x245A JUMP JUMPDEST DUP2 ADD PUSH1 0x20 DUP6 LT ISZERO PUSH2 0x258E JUMPI DUP2 SWAP1 POP JUMPDEST PUSH2 0x25A2 PUSH2 0x259A DUP6 PUSH2 0x245A JUMP JUMPDEST DUP4 ADD DUP3 PUSH2 0x2541 JUMP JUMPDEST POP POP JUMPDEST POP POP POP JUMP JUMPDEST PUSH1 0x0 DUP3 DUP3 SHR SWAP1 POP SWAP3 SWAP2 POP POP JUMP JUMPDEST PUSH1 0x0 PUSH2 0x25C8 PUSH1 0x0 NOT DUP5 PUSH1 0x8 MUL PUSH2 0x25AA JUMP JUMPDEST NOT DUP1 DUP4 AND SWAP2 POP POP SWAP3 SWAP2 POP POP JUMP JUMPDEST PUSH1 0x0 PUSH2 0x25E1 DUP4 DUP4 PUSH2 0x25B7 JUMP JUMPDEST SWAP2 POP DUP3 PUSH1 0x2 MUL DUP3 OR SWAP1 POP SWAP3 SWAP2 POP POP JUMP JUMPDEST PUSH2 0x25FA DUP3 PUSH2 0x1742 JUMP JUMPDEST PUSH8 0xFFFFFFFFFFFFFFFF DUP2 GT ISZERO PUSH2 0x2613 JUMPI PUSH2 0x2612 PUSH2 0x1A02 JUMP JUMPDEST JUMPDEST PUSH2 0x261D DUP3 SLOAD PUSH2 0x1F40 JUMP JUMPDEST PUSH2 0x2628 DUP3 DUP3 DUP6 PUSH2 0x2564 JUMP JUMPDEST PUSH1 0x0 PUSH1 0x20 SWAP1 POP PUSH1 0x1F DUP4 GT PUSH1 0x1 DUP2 EQ PUSH2 0x265B JUMPI PUSH1 0x0 DUP5 ISZERO PUSH2 0x2649 JUMPI DUP3 DUP8 ADD MLOAD SWAP1 POP JUMPDEST PUSH2 0x2653 DUP6 DUP3 PUSH2 0x25D5 JUMP JUMPDEST DUP7 SSTORE POP PUSH2 0x26BB JUMP JUMPDEST PUSH1 0x1F NOT DUP5 AND PUSH2 0x2669 DUP7 PUSH2 0x2445 JUMP JUMPDEST PUSH1 0x0 JUMPDEST DUP3 DUP2 LT ISZERO PUSH2 0x2691 JUMPI DUP5 DUP10 ADD MLOAD DUP3 SSTORE PUSH1 0x1 DUP3 ADD SWAP2 POP PUSH1 0x20 DUP6 ADD SWAP5 POP PUSH1 0x20 DUP2 ADD SWAP1 POP PUSH2 0x266C JUMP JUMPDEST DUP7 DUP4 LT ISZERO PUSH2 0x26AE JUMPI DUP5 DUP10 ADD MLOAD PUSH2 0x26AA PUSH1 0x1F DUP10 AND DUP3 PUSH2 0x25B7 JUMP JUMPDEST DUP4 SSTORE POP JUMPDEST PUSH1 0x1 PUSH1 0x2 DUP9 MUL ADD DUP9 SSTORE POP POP POP JUMPDEST POP POP POP POP POP POP JUMP JUMPDEST PUSH1 0x0 PUSH1 0x40 DUP3 ADD SWAP1 POP PUSH2 0x26D8 PUSH1 0x0 DUP4 ADD DUP6 PUSH2 0x17D2 JUMP JUMPDEST DUP2 DUP2 SUB PUSH1 0x20 DUP4 ADD MSTORE PUSH2 0x26EA DUP2 DUP5 PUSH2 0x1799 JUMP JUMPDEST SWAP1 POP SWAP4 SWAP3 POP POP POP JUMP JUMPDEST PUSH32 0x5573657220616C72656164792072656769737465726564000000000000000000 PUSH1 0x0 DUP3 ADD MSTORE POP JUMP JUMPDEST PUSH1 0x0 PUSH2 0x2729 PUSH1 0x17 DUP4 PUSH2 0x174D JUMP JUMPDEST SWAP2 POP PUSH2 0x2734 DUP3 PUSH2 0x26F3 JUMP JUMPDEST PUSH1 0x20 DUP3 ADD SWAP1 POP SWAP2 SWAP1 POP JUMP JUMPDEST PUSH1 0x0 PUSH1 0x20 DUP3 ADD SWAP1 POP DUP2 DUP2 SUB PUSH1 0x0 DUP4 ADD MSTORE PUSH2 0x2758 DUP2 PUSH2 0x271C JUMP JUMPDEST SWAP1 POP SWAP2 SWAP1 POP JUMP JUMPDEST PUSH1 0x0 PUSH1 0x40 DUP3 ADD SWAP1 POP PUSH2 0x2774 PUSH1 0x0 DUP4 ADD DUP6 PUSH2 0x1D47 JUMP JUMPDEST PUSH2 0x2781 PUSH1 0x20 DUP4 ADD DUP5 PUSH2 0x1DBE JUMP JUMPDEST SWAP4 SWAP3 POP POP POP JUMP JUMPDEST PUSH32 0x496E76616C6964207363686564756C6520494400000000000000000000000000 PUSH1 0x0 DUP3 ADD MSTORE POP JUMP JUMPDEST PUSH1 0x0 PUSH2 0x27BE PUSH1 0x13 DUP4 PUSH2 0x174D JUMP JUMPDEST SWAP2 POP PUSH2 0x27C9 DUP3 PUSH2 0x2788 JUMP JUMPDEST PUSH1 0x20 DUP3 ADD SWAP1 POP SWAP2 SWAP1 POP JUMP JUMPDEST PUSH1 0x0 PUSH1 0x20 DUP3 ADD SWAP1 POP DUP2 DUP2 SUB PUSH1 0x0 DUP4 ADD MSTORE PUSH2 0x27ED DUP2 PUSH2 0x27B1 JUMP JUMPDEST SWAP1 POP SWAP2 SWAP1 POP JUMP INVALID LOG2 PUSH5 0x6970667358 0x22 SLT KECCAK256 0xC5 LOG3 SWAP7 0xDF 0xF8 DUP8 0xDD INVALID CALLDATASIZE DIV 0xA5 SWAP8 0xA7 0x2A 0xE2 SWAP7 SWAP7 DUP12 0xEE MLOAD SWAP15 EXTCODECOPY PUSH4 0x91D4F557 0xCB SWAP10 0xE2 SWAP8 ORIGIN PUSH5 0x736F6C6343 STOP ADDMOD SHL STOP CALLER "},"methodIdentifiers":{"addSchedule(uint256,uint8,uint8,uint8)":"77b31134","admin()":"f851a440","courses(uint256)":"96f979d2","createCourse(string,string,uint256)":"a4adb24b","deleteCourse(uint256)":"9dad8d22","getCourse(uint256)":"0b91e28d","getSchedule(uint256,uint256)":"f43e5e42","getStudentCourses()":"83517a4f","listCourses()":"c53069c7","registerStudentInCourse(uint256)":"19384dd1","registerUser(address,uint8)":"9e9fa097","totalCourses()":"87ac1860","updateCourse(uint256,string,string,uint256)":"91aac065","users(address)":"a87430ba"}}}}}